:020000040800F2
:1000000060870524A5030008E7690008B75B0008BE
:10001000E5690008711F0008C18D0008000000009C
:1000200000000000000000000000000095810008B2
:100030004121000800000000617800089781000855
:10004000C3030008C3030008C3030008C303000878
:10005000C3030008C3030008C3030008C303000868
:10006000C3030008C3030008C3030008C303000858
:10007000C3030008C3030008C3030008C303000848
:10008000C3030008C3030008C3030008C303000838
:10009000C3030008C3030008C3030008C303000828
:1000A000C3030008C3030008C3030008C303000818
:1000B000C3030008C3030008C3030008C303000808
:1000C000C3030008C3030008C3030008C3030008F8
:1000D000C3030008B18B0008C3030008C303000872
:1000E000C3030008C303000800000000C3030008A6
:1000F000C3030008C3030008C3030008C3030008C8
:10010000C3030008C3030008C3030008C3030008B7
:10011000C3030008C303000891830008C303000859
:10012000C3030008C3030008C3030008C303000897
:10013000C3030008C3030008C3030008C303000887
:10014000C3030008C3030008000000000000000013
:10015000C3030008C3030008C3030008C303000867
:10016000C3030008C3030008C3030008C303000857
:10017000C3030008C3030008C30300080000000015
:10018000C3030008C3030008C30300081D8500085B
:10019000C3030008C3030008C3030008C303000827
:1001A000C3030008C3030008C3030008C303000817
:1001B000C3030008C3030008C3030008C303000807
:1001C000C3030008C3030008C3030008C3030008F7
:1001D000C3030008C3030008C3030008C3030008E7
:1001E000C3030008C3030008C3030008C3030008D7
:1001F000C3030008C3030008C3030008C3030008C7
:10020000C3030008C3030008C3030008C3030008B6
:10021000C3030008C3030008C3030008C3030008A6
:10022000C3030008C3030008C3030008C303000896
:10023000C3030008C3030008C3030008C303000886
:10024000C3030008C3030008C3030008C303000876
:10025000C3030008C3030008C3030008C303000866
:10026000C3030008C3030008C3030008C303000856
:10027000C3030008C3030008C3030008C303000846
:10028000C3030008C3030008C30300080000000004
:10029000C3030008C303000800F002F800F072F87E
:1002A0000AA090E8000C82448344AAF10107DA45D1
:1002B00001D100F067F8AFF2090EBAE80F0013F0B1
:1002C000010F18BFFB1A43F001031847AC7F010070
:1002D000DC7F01000A444FF0000C10F8013B13F0E2
:1002E000070408BF10F8014B1D1108BF10F8015B8F
:1002F000641E05D010F8016B641E01F8016BF9D182
:1003000013F0080F1EBF10F8014BAD1C0C1B09D1D8
:100310006D1E58BF01F801CBFAD505E014F8016B4A
:1003200001F8016B6D1EF9D59142D6D370470000DC
:100330000023002400250026103A28BF78C1FBD8EE
:10034000520728BF30C148BF0B60704766290CF0C8
:10035000BB82642900F00681752900F003817329AE
:1003600000F08B85002070471FB50CF06BFA00F091
:100370008DFD0400002000210CF000FAE0601FBD9C
:1003800010B510BD00F083FE1146FFF7EDFF0AF037
:1003900063FD00F0A1FE03B4FFF7F2FF03BC00F021
:1003A000A5FE00000A4880470A4880470A480047DF
:1003B000FEE7FEE7FEE7FEE7FEE7FEE7FEE7FEE715
:1003C000FEE7FEE705480649064A074B704700006E
:1003D000552200087D8200089902000860810524EA
:1003E00060870524608305246083052453EA020C9A
:1003F00000F069802DE9F04B4FF00006002B1FBF85
:10040000B3FA83F503FA05F424FA05F65E4012BF49
:100410001643B2FA82F502FA05F4C5F120051EBFB3
:1004200022FA05FC44EA0C04203556EA044C4FEA53
:10043000144418BF641C4FF000084FF000099042AC
:1004400071EB030C39D3002919BFB1FA81F701FA16
:1004500007F6B0FA80F700FA07F6C7F120071EBFCB
:1004600020FA07FC46EA0C062037B6FBF4FCA7EBA3
:100470000507103F07F01F0BCBF120060CFA0BFB12
:100480002CFA06F644BFB3460026202FA4BF5E46D2
:100490004FF0000B5BEA060C08BF4FF0010B19EBA5
:1004A0000B09ABFB027C48EB0608C01B06FB02CC29
:1004B0000BFB03CC71EB0C01C1E70B460246414636
:1004C0004846BDE8F08B13B54FF000004FF0000137
:1004D000AFF30080BDE81C40704700000FB41CB5AE
:1004E0000C0007AA009001D02044401E074B7B441B
:1004F00069460190069800F08EFC002C03D06946F6
:10050000002000F09BFC1CBC5DF814FB55090000AA
:1005100070B50C460546012A05D02878800600D51E
:10052000EA69002302E0012305E05B1C934202D24A
:10053000E05C0028F9D1A869E618C01AA861286A09
:10054000184428622846AFF3008004E0D5E9012171
:1005500014F8010B9047B442F8D32846AFF300805B
:1005600070BD00002DE9F041064600241068752991
:10057000314616A510D0AFF30080002802DA4042C1
:1005800013A507E031688A0701D512A502E04907E3
:1005900004D511A5012401E0AFF3008000210A2257
:1005A00006F1240709E0B0FBF2FCB0FBF2F302FB1A
:1005B0001C00303078541846491C0028F3D12346DB
:1005C0002A463046BDE8F04100F0B8B9000000000E
:1005D0002D0000002B000000200000002DE9F04756
:1005E0004FF0000A89460446C0F820A02046E16882
:1005F0008847002876D0252806D0D4E901219047E5
:10060000206A401C2062F1E7E16820460026884706
:10061000C4F81CA005460027C4F818A02A2D09D04C
:10062000284608F020FF38B304EB8708303DC8F8AF
:10063000185019E059F8041B204604EB8702916119
:10064000E1688847012F054618D1E069002820DAC3
:1006500026F020061DE0D8F8180000EB800005EB1E
:1006600040003038C8F818002046E1688847054641
:1006700008F0F9FE0028EED1012F0AD02E2D08D166
:100680002046E16888477F1C0546022F46F0200679
:10069000C4DBA069002803DA404246F00106A061ED
:1006A000F00701D026F010066C2D0AD0682D08D076
:1006B0004C2D39D06A2D35D0742D35D07A2D33D0CC
:1006C00016E0E1682F4620468847B84205460AD121
:1006D0006C2F27D04FF48060E1680643204688479E
:1006E000054605E027E06C2F1AD04FF480700643D2
:1006F0000DB3A5F14100192802D8203546F4006653
:100700004A462946204626604E46FFF71FFE80B126
:1007100001280BD0F61D26F0070000F1080965E757
:100720004020E4E78020D7E70020D5E706F1040960
:100730005CE7284661E7206ABDE8F08710B5431CF6
:1007400002E010F8011B71B18107FAD14FF00132BC
:1007500002C88C1A8C4314EAC211F9D0C01A0A06D6
:1007600003D0C01E10BDC01A10BD0A0401D0801EE7
:1007700010BD0902FCD0401E10BD032A40F230809B
:1007800010F0030C00F0158011F8013BBCF1020FD2
:10079000624498BF11F801CB00F8013B38BF11F853
:1007A000013BA2F1040298BF00F801CB38BF00F86A
:1007B000013B11F0030300F02580083AC0F00880E7
:1007C00051F8043B083A51F804CBA0E80810F5E7CB
:1007D000121D5CBF51F8043B40F8043BAFF30080AE
:1007E000D20724BF11F8013B11F801CB48BF11F823
:1007F000012B24BF00F8013B00F801CB48BF00F8F3
:10080000012B704710B5203AC0F00B80B1E81850AA
:10081000203AA0E81850B1E81850A0E81850BFF4EA
:10082000F5AF5FEA027C24BFB1E81850A0E8185089
:1008300044BF18C918C0BDE810405FEA827C24BFDD
:1008400051F8043B40F8043B08BF7047D20728BF6B
:1008500031F8023B48BF11F8012B28BF20F8023BBA
:1008600048BF00F8012B70474FF0000200B5134657
:1008700094469646203922BFA0E80C50A0E80C50C0
:10088000B1F12001BFF4F7AF090728BFA0E80C5071
:1008900048BF0CC05DF804EB890028BF40F8042B6A
:1008A00008BF704748BF20F8022B11F0804F18BFD7
:1008B00000F8012B704700004FF0013C50F8042B6A
:1008C00051F8043B9A4215D1A2EB0C03934313EA6F
:1008D000CC130BD150F8042B51F8043B9A4209D1A8
:1008E000A2EB0C03934313EACC13E7D04FF00000C4
:1008F000704700BFD01A01BAB1FA81F101F01801B6
:1009000022FA01F0CB40C1F12001DBB2C0B2C01A23
:100910002CFA01F3D11A914311EAC311E6D17047C1
:1009200070477047704710B500F0B4FA006810BD0A
:1009300010B5044600F0AEFA046010BD2DE9F04792
:100940000D4699469246044600F12408016888063F
:1009500004D5E06921F01001216000E00120A842E7
:1009600001DD471B00E00027A1697A1902EB0900AD
:10097000081AA0612078C00602D42046AFF3008098
:10098000002608E0D4E901211AF806009047206A01
:10099000401C761C20624E45F4DB2078C0060AD548
:1009A0002046AFF3008006E0D4E9012130209047D3
:1009B000206A401C2062381EA7F10107F4DC07E022
:1009C000D4E9012118F805009047206A401C2062F4
:1009D000281EA5F10105F3DC2046AFF30080207846
:1009E000000602D50220BDE8F0870120FBE7704732
:1009F0002DE9FF4F0C461E464FF0FF378BB0D2E972
:100A00000001DDF860800A908A46C1F30A5505B9F5
:100A10003D46002108464FF00000BAF1000F00F4F7
:100A2000400005DA00EB80004FF4400101EA50007D
:100A30004FEA9059B9F1010F00DDB9460A9850EA22
:100A40004A000ED044F61050A5F2FF3545432F144E
:100A5000B8F1000F1ED07542291E1EDDC9F100023B
:100A60001CE0B8F1010F4FF0000001D0302103E08D
:100A7000F24305E02154401CB042FBDB304600222B
:100A8000002121540B99C1F80880C1E900200FB062
:100A9000BDE8F08FBD1B6D1CDEE74A4600DA6942F7
:100AA00006A800F081FA06AB93E8070003AB83E8E1
:100AB000070050460A9900F01FFB8DE80700A0F5DB
:100AC00000501F3800900398002D0ADD42F21F01EC
:100AD0004A460844002303A90390684600F088FDB5
:100AE00009E0A0F500504A461F38002303A90390EF
:100AF000684600F092FD8DE807000004000C03D06A
:100B00004FF0FF30410800E01046B8F1000F03D06D
:100B10000022009215461EE0751E05D400F0BEF9B5
:100B2000303262556D1EF9D5B3460122084302D01A
:100B300000227F1C04E02078302801D100227F1E93
:100B4000002A099784D01DE0112D07DA00F0A6F9DC
:100B5000303262556D1C50EA0102F5D1084302D0D3
:100B60000098C8B10EE00021681E05E0235C625CBD
:100B700063542254401E491C8142F7DBAB46A81B3C
:100B8000401E0990002004F80B000B98099AC0F849
:100B90000880C0E9002B7AE711264FF0000857E7DC
:100BA0002DE9F04F88460446D21D22F0070191B08E
:100BB000D1E90001CDE90A0108F003F902460B98DA
:100BC000C00F01D02D2007E02068810701D52B2020
:100BD00002E0202101EAC000032A099001D0072A7F
:100BE00005DB03464146204600F09EF90BE12078E4
:100BF000800601D5E06900E00620B8F1650F814666
:100C000006D0B8F1660F18D0B8F1670F70D131E097
:100C10000020B9F1110F009001DB112301E009F16F
:100C200001030AAA01A90CA8FFF7E2FEDDE90C7096
:100C3000002609F10105834647E001204B4600905C
:100C40004FF000470AAA01A90CA8FFF7D1FEDDE981
:100C50000DB00C995D46002610B909F101000D1880
:100C6000B9EB050003D4C0F1FF3609F10105A5EB8E
:100C700009002BE0B9F1010F01DA4FF00109002062
:100C8000B9F1110F0090484601DD112300E0034641
:100C90000AAA01A90CA8FFF7ABFEDDE90C704D46CE
:100CA00000268346207800070AD4AB4500DA5D466B
:100CB00001A8012D04DD411911F8011C302907D0CC
:100CC0004F4502DA17F1040F04DA012082460FE0E3
:100CD0006D1EEEE7002F02DCED1B3E4403E0781CA6
:100CE000A84200DD7D1CB81B00F1010A4FF000474F
:100CF0002078000703D4AA4501DB4FF0FF3A00211A
:100D0000B7F1004F0DF143088DF8431024D00220B5
:100D10002B23002F01DA7F422D230A21021EA0F18E
:100D2000010000DC5FB197FBF1FC97FBF1F201FBE6
:100D30001C7C17460CF1300C08F801CDEEE7A8F149
:100D4000010003702188090501D5452100E06521D6
:100D5000A0F1010800F8011C09980FA9A1EB0807F0
:100D6000FF1D00B10120411901EBEA70A16938446F
:100D7000081A401EA0612078C00602D42046AFF3B6
:100D80000080099828B1D4E901219047206A401CCD
:100D900020622078C00622D52046AFF300801EE0F6
:100DA000002E04DBB34502DD01A8805D00E03020A9
:100DB000D4E901219047206A401C2062761CAAF1E8
:100DC00001005FEA000A0AD100F060F8C06801681B
:100DD000405CD4E901219047206A401C2062281E13
:100DE000A5F10105DCDC07E0D4E9012118F8010BCD
:100DF0009047206A401C2062381EA7F10107F3DCEF
:100E00002046AFF30080032011B041E601694A1C7F
:100E100002610878704700B58FB0CDE9013100213B
:100E2000059105497944CDE9031011466846FFF75D
:100E3000D5FB0FB000BD0000E5FFFFFF0A6802F818
:100E4000010B0A607047D1E900239A4202D2531C79
:100E50000B601070704710B5436913B1AFF3008099
:100E600001E0FFF755FB012010BD127800F12401CD
:100E70000A7000224A700122EDE711684FF0FF323C
:100E8000E9E7000000487047FC80052400487047EF
:100E90001C81052400487047FC80052430B5B0F162
:100EA0000A024FEA900E71F100034EEA817EB0EB28
:100EB0000E0061EB91014FEA101E4EEA017E10EB2D
:100EC0000E0041EB11114FEA102E4EEA016E10EBAD
:100ED0000E0041EB11214FEA104E4EEA014E10EB8D
:100EE0000E0041EB1141401841F100014FEAD000E2
:100EF00040EA41704FEAD10110EB80054FEA8104CE
:100F000044EA907444EB01046D1944EB0404521B51
:100F1000A3414FF0000348BF0A3200D530BD401C4A
:100F200041F1000130BD00002DE9F0411F460446AB
:100F300003260168072A01F4006004DB08B116A546
:100F400005E016A503E008B115A500E015A521F000
:100F500010002060A069C01EA0610FB1401EA061FA
:100F60002046AFF300804FB1D4E9012138469047C5
:100F7000206A401C2062C01C206206E0206AFAE75A
:100F8000D4E9012115F8010B9047761EF8D22046CE
:100F9000AFF30080BDE8F0814E414E006E616E00FF
:100FA000494E4600696E66002DE9F04781461646B7
:100FB0008AB0354878440DC88DE80D003248784431
:100FC000801C03AC0DC884E80D0041F69B3008443A
:100FD000372190FBF1F290FBF1F5A5F1800501FBC3
:100FE00012041B3C02D56442012000E00020DFF81F
:100FF00098A080460027FA44AAF1BE0A0EE0E00756
:101000000AD03246684607EB470101230AEB81010B
:1010100000F003FB8DE8070064107F1C002CEED16C
:10102000194F7F44AE3F19E0E80715D007EB0410D5
:101030000DF1180A90E80E008AE80E00C068F04230
:1010400001D1981908903246012306A903A800F09F
:10105000E4FA03AB83E807006D10641C002DE3D1B4
:101060004FF0010332466946B8F1000F03A802D0E1
:1010700000F0BEFA01E000F0D0FAC9E90001C9F8B9
:1010800008200AB0BDE8F087487201007047754635
:10109000FFF7F8FEAE4605006946534620F007000C
:1010A000854618B020B5FFF78DF9BDE820404FF018
:1010B00000064FF000074FF000084FF0000B21F042
:1010C0000701AC46ACE8C009ACE8C009ACE8C0090F
:1010D000ACE8C0098D46704710B50446AFF30080F8
:1010E0002046BDE81040FFF756B90000014918201E
:1010F000ABBEFEE7260002005FEA400C08BF91F09D
:10110000000F4FEA8C234FEAC12243EA51514FEAC4
:101110001C5018BF00F5F0404FEA300018BF41F0F6
:1011200000415FEA6C5C00F02980BCF1FF3F08BF22
:1011300040F080407047130C06BF12044FF0100CB3
:101140004FF0000C130E04BF12020CF1080C130F29
:1011500004BF12010CF1040C930F04BF92000CF1B8
:10116000020CD30F04BF52000CF1010C11464FF0DA
:101170000002A0F11F00A0EB0C00704711F0004F1F
:1011800008BF704731F000413FF4D5AF0B0C06BFEC
:1011900009044FF0100C4FF0000C0B0E04BF0902B5
:1011A0000CF1080C0B0F04BF09010CF1040C8B0FA0
:1011B00004BF89000CF1020CCB0F04BF49000CF1F5
:1011C000010CCCF12003A0EB0C0022FA03F302FA8D
:1011D0000CF241EA030100F10100704720F07F4C5E
:1011E00080EA030023F07F47ACEB070303F57C5351
:1011F00000F0004003F1FF032DE980494FEA154B51
:1012000009B44FEA144325EA0B4E24EA03480FF2CF
:10121000042606EB132749083E785FEA320203FBF7
:101220000667C7F5000707FB06F64FEA54374FEA93
:10123000D64606F1020607FB066CCCF1005C4FEACD
:101240001C472CEA074C07FB06F40CFB06F504EBE5
:1012500015464FEA961634BF00204FF000404FEA83
:10126000D13706FB07FC4FEA1C4C0CFB0BF7D21BDB
:1012700003FB0CF761EB07010CFB0EF7B0EB07402B
:1012800072EB17420CFB08F734BFA2EB0742B2EB3C
:10129000074261EB17414FEA0C444FEA910706FB06
:1012A00007FC4FEA1C4C0CFB0BF7B0EBC74072EB92
:1012B000573203FB0CF734BFA2EBC742B2EBC74275
:1012C00061EB57310CFB0EF7B0EBC70072EB5772B6
:1012D0000CFB08F734BFA2EBC702B2EBC70261EB0D
:1012E0005771039F4FEA816141EA921104EBCC04EC
:1012F0004FEAD1374FEA826206FB07FC42EA9012BE
:101300004FEA80604FEA1C4C0CFB0BF7D21B03FB2F
:101310000CF761EB07010CFB0EF7B0EB074072EB2B
:1013200017420CFB08F734BFA2EB0742B2EB0742AF
:1013300061EB17414FEA8C554FEA910704EB9C246F
:1013400006FB07FC4FEA1C4C0CFB0BF7B0EBC7404D
:1013500072EB573203FB0CF734BFA2EBC742B2EB80
:10136000C74261EB57310CFB0EF7B0EBC70072EBD5
:1013700057720CFB08F734BFA2EBC702B2EBC702EF
:1013800061EB577115EB4C254FEA816141EA9211EF
:101390004FEA82624FEAD13742EA901206FB07FC1D
:1013A00044F100044FEA80604FEA1C4C0CFB0BF741
:1013B000D21B03FB0CF761EB07010CFB0EF7B0EB44
:1013C000074072EB17420CFB08F734BFA2EB074251
:1013D000B2EB074261EB174115EB1C154FEA813167
:1013E00041EA92414FEA823242EA90424FEA80302B
:1013F0004FEA0C7644F1000448EA03434EEA0B48F6
:101400004FF0000EB2EB080C71EB030724BF6246ED
:1014100039464EEB0E0E4FF0000B00185241494179
:101420004BEB0B0BB2EB080C71EB03077BF1000BE2
:1014300024BF624639464EEB0E0E4FF0000B0018EB
:10144000524149414BEB0B0BB2EB080C71EB03071C
:101450007BF1000B24BF624639464EEB0E0E51EA7B
:10146000020718BF46F0010616EB0E7655F1000292
:1014700054F1000103D5BDE88901BDE80088BDE84D
:101480008901BDE80048B619524141EB0101A3F1C1
:101490000103704780807F7E7D7C7B7A79787776C8
:1014A00076757473727171706F6E6E6D6C6C6B6A41
:1014B0006A696868676666656464636362616160DF
:1014C000605F5F5E5E5D5D5C5C5B5B5A5A5959585C
:1014D00058575756565555555454535352525251C6
:1014E000515050504F4F4F4E4E4D4D4D4C4C4C4B1C
:1014F0004B4B4A4A4A494949484848474747474663
:10150000464645454544444444434343434242429E
:1015100042414141002B9C4630D477002BD01CB572
:101520004FEA370703B44FF010004FF01001BAF143
:10153000000F06D0BCF1000FDCBF40F0080040F007
:1015400008014FF000000FBCBDE810400BF1010B8B
:10155000BBF1010F08BF5FEA170722BF12F10102BA
:1015600011F101014FF0004143F1000300F0004090
:1015700043EA00007047F9D35708D0E746EA064629
:1015800013F1400F4FEA16461FDD13F1200FDFBFA6
:1015900016430A46002120335B42BED0C3F1200728
:1015A00046EA064602FA07F74FEA164646EA0706F3
:1015B000C3F1200722FA03F201FA07F721FA03F137
:1015C0004FF0000342EA0702A7E746EA020646EAAE
:1015D00006464FEA164646EA0106BCBF46EA0646FC
:1015E000360C4FF000034FF000024FF0000194E77B
:1015F0002DE9804C9A46934670B491E8380007C8AC
:1016000031EA400C48BF34EA430C03D5FFF7E6FD4E
:10161000FFF780FFF0BCBDE8008C2DE9804C9A46B6
:10162000934670B491E8380007C810F0804F08BFA7
:1016300013F0804F03D100F005F8FFF76BFFF0BC0B
:10164000BDE8008C20F07F4780EA030023F07F4C48
:1016500007EB0C03A3F57C5300F00040A3F1FE035D
:1016600092F0000F00F0B38095F0000F00F077804B
:101670002DE901494FEA11404FEA144621EA00489A
:1016800000FB06FC24EA064708FB06F607FB08F801
:1016900000FB07F718EB06484CEB164C4FEA124BD1
:1016A00018EB07484FEA15464CEB174022EA0B4E61
:1016B0000BFB06FC25EA06470EFB06F607FB0EFEB3
:1016C0000BFB07F71EEB064E4CEB164C4FF00006DB
:1016D0001EEB074E4CEB174B18EB0B0840F10000CC
:1016E00018EB0E0B58EB000840F100008F1A4FF07A
:1016F00000013CBFC943661B14BFB5EB040C0021BD
:101700003CBFC943F61B4FEA17444EEA8E0E27EA48
:1017100004454FEA1C4704FB07622CEA074C05FB13
:1017200007F70CFB05F604FB0CFC16EB074642EB37
:10173000174216EB0C4642EB1C421BEB060658EB1D
:101740000202414146EA9E0601D5BDE80189B6196B
:10175000524141EB0101A3F10103BDE801894FEAC8
:1017600014454FEA114724EA054621EA074C05FBD8
:1017700007F406FB07F70CFB06F105FB0CFC11EB6D
:10178000074144EB17444FEA124711EB0C4144EB7D
:101790001C4422EA074C05FB07F206FB07F70CFB8B
:1017A00006F605FB0CFC16EB074642EB174216EB60
:1017B0000C4642EB1C456A1854F1000148BF7047C3
:1017C000B619524141EB0101A3F10103704795F0B5
:1017D000000F37D04FEA11424FEA144721EA024680
:1017E00024EA074C02FB07F106FB07F70CFB06F4A3
:1017F00002FB0CFC14EB074441EB17414FEA154781
:1018000014EB0C4441EB1C4125EA074C02FB07F5A5
:1018100006FB07F70CFB06F602FB0CFC16EB074673
:1018200045EB174516EB0C4645EB1C42121951F1DE
:10183000000148BF7047B619524141EB0101A3F1C5
:10184000010370474FEA14454FEA114724EA054661
:1018500021EA074C05FB07F106FB07F70CFB06F234
:101860004FF0000605FB0CFC12EB074241EB174161
:1018700012EB0C4251EB1C4148BF7047921841EBF0
:101880000101A3F10103704701F03CBE2DE9FF4FB8
:1018900083B03B481D7B1C7D039E2D0493F818905C
:1018A000240493F81780C6EBC60C1E7FE34650F85D
:1018B0002C7000EB8B0A587FDFF8C4C007FB0217BF
:1018C00006EB0020DE7A997AACF1A80CDAF8082051
:1018D00001EB062102EB820606EBC2065A7B0CEBFB
:1018E0008606DAF810C005EB02659A7C01EB050E5E
:1018F000D97C5D7DF66D02EB0122997D04EB0564D8
:101900005D7E14444FEA094201EB082802EB0565AD
:1019100007FB0C6900220292A0F12001082908EBC4
:10192000050601D2002506E0A0F11001082901D228
:10193000022500E00125711E03EB0E026143C00881
:101940000190002701FB0020804612E023464A4612
:1019500001460398009504F013FA09487F1CDAF851
:10196000102050F82B1001FB0299019904FB118003
:101970008046B742EAD3029807B0BDE8F08F000076
:10198000C00805242DE9FC411C461346134AC0EB50
:10199000C0050F19DDF820E002EB850652F825207E
:1019A000B56897420D4F02FB031305EB850C3669B2
:1019B0000CEBC505A7F1A80707EB8505ED6D06FB48
:1019C000035500D9541A00212246CDE9001E0123F7
:1019D000294604F017FA0020BDE8FC81C008052460
:1019E0002DE9FC41144DC0EBC007DFF84CC005EBFE
:1019F0008704DDF820E0ACF1A80C55F82750A66864
:101A000005FB021106EB860707EBC607266964682B
:101A10000CEB870702EB030CA445FF6D06FB01717D
:101A200000D9A31A6D1E0122CDE9005E04F0EAF987
:101A30000020BDE8FC810000C00805242DE9FF4F0F
:101A40008B46154900261C460098DDE90D7AC0EB4F
:101A5000C00001EB800918E00298002500EB0608A1
:101A600010E0A1782088E27861F31F4040EA026329
:101A700000980BEB0501424600F074F9D9F810000C
:101A80006D1C0444BD42ECD3761C5645E4D304B02F
:101A90000020BDE8F08F0000C00805242DE9FC41BE
:101AA000114EC0EBC0051C4606EB8503DDE9087C42
:101AB00056F82550A83ED3F808E01B6905FB021133
:101AC0000EEB8E0202EBCE022D1B06EB8202D26DD4
:101AD00003FB0121CDE9005C3B46224604F092F96C
:101AE0000020BDE8FC810000C008052400284FF05C
:101AF000000001D0801E7047014AD2680A6070471A
:101B0000C008052400284FF0000001D0801E704757
:101B1000044A5268526C002AF9D0034A12680A60DB
:101B20007047000070FD0424C008052400284FF011
:101B3000000001D0801E7047044A5268926C002A4F
:101B4000F9D0034A52680A607047000070FD04240F
:101B5000C008052408B54FF4F0724FF448730092A2
:101B6000012200F001F808BD2DE9FF4F87B098462B
:101B700015464FF000040899DDF85090012906D869
:101B800028B94448022D214609D0012D02D06FF01A
:101B9000010478E0042202610027052603E0022206
:101BA000026100261746C0E900898B468246C5605F
:101BB000584600F09DF804F08FF8364B4FF0A042E5
:101BC0003549A83B35481960A3F168010860A1F1C7
:101BD0001C000260843004F06FF9314800F0CAF94B
:101BE0002F481C3800F06CFA2D4833464A464146CF
:101BF0001C3804F0A1FC6FF0030658B9284868307F
:101C000004F0D0FD30B926484A464146683004F019
:101C10000FFE08B1344636E0002000F07DF918B11F
:101C200030460BB0BDE8F08F1E4A00211C48CDE9BC
:101C300000B86830CDE90472CDE902B96A4604F013
:101C4000CAFD4FF0010708B134461AE014481C38A9
:101C500001F0EEFA124804211C3800F0BBFF022DFF
:101C600013D00020089905F085F850B10E48022DD8
:101C700007700CD00020089905F016FD08B16FF030
:101C80000604CAF818702046CBE70220EAE70220D3
:101C9000F1E70000C00805240010005000100052B9
:101CA000B0070524000010D070FD042470B50F4D5E
:101CB000C0EBC0000D4EA5F1A80405EB800556F859
:101CC0002000AD6802FB001005EB850606EBC501A0
:101CD00004EB81018A6CC96D22B131F810001860E3
:101CE000002070BD51F82000F9E70000C00805246D
:101CF000144810B586B0016841F0400101600068E9
:101D00000322114C082100F0400005900120CDE98C
:101D10000202CDE900106946204601F0C5FA002212
:101D20002046082101F0E2FB142001F0A3FA012271
:101D30002046082101F0DAFB0A2001F09BFA06B0E8
:101D400010BD0000E04402580018025800284FF06F
:101D5000000001D0801E7047014A9160704700006A
:101D6000C008052470B50E4DC0EBC0000C4EA5F1A7
:101D7000A80405EB800556F82000AD6802FB0010B2
:101D800005EB850606EBC50104EB81018A6CC96D84
:101D90001AB121F81030002070BD41F82030FAE768
:101DA000C00805242DE9F04117460E464FF0000506
:101DB00008B1AD1E32E01B4C207802280BD06FB169
:101DC000002018494C39C860084601F06DFE38B152
:101DD0006FF0030522E06FF019051FE01020F0E717
:101DE00060786FF00408012803D0022801D003288E
:101DF00002D0032E07D00DE0032E0BD009484C383B
:101E000004F0F0FA03E007484C3804F0D1FA08B1C6
:101E1000454603E0012020706670A7702846BDE8A3
:101E2000F0810000F40505242DE9F0414FF0000495
:101E300008B1A41E13E00B4D02276FF004062846DC
:101E40004178A8780028A5F14C0004D004F008FAE5
:101E500020B1344603E004F041FAF9E72F70204640
:101E6000BDE8F081F40505242DE9F0415FEA0008A2
:101E70000F468AB04FF0000401D0A41E43E0244E68
:101E8000307800BBA6F14C0005F008FE684604F06F
:101E9000C3FA787840211F4A52F820000690009833
:101EA000089190FAA0F0B0FA80F0401E0590787882
:101EB00050B100200790164805A94C3804F0F8FCF2
:101EC00020B16FF003041EE01020F3E7404605F058
:101ED000BFFE6FF00405A8B90D4871784C3804F0C6
:101EE00098F978B90A4871784C3804F033FA48B94F
:101EF000404605F083FD28B97A7840463978FFF7E7
:101F000051FF00B12C460AB02046BDE8F081000028
:101F1000F405052404C9000870B510B16FF0010084
:101F200070BD124806F00CF8104804F0D9FC10B14E
:101F30004FF0FF3070BD0D480021082240F20364CD
:101F4000F838302596010323C0E90241C0E90415A1
:101F5000C0E90616C0E900230146F83003F040FE50
:101F60000028E7D06FF0040070BD0000F8060524DB
:101F7000FEE7000008B500680B49884212D10B4803
:101F8000016841F010010160006800F0100000904D
:101F900006485838016841F010010160016821F0DD
:101FA0001001016008BD000000100052D444025826
:101FB000F0B5059C44EA034503685C6C04F04044BA
:101FC0002C435C640368DA634268B2F5403F05D095
:101FD0000068B2F5802F37D0C160F0BD01F47F42B8
:101FE000856801F47F04224301F07F4301F47F07F9
:101FF00001F47F46CCB2BDB1012D16D001F47F02B1
:10200000C1F3C401D20C022D11D0032D14D0310B19
:102010003A0D09011B0F41EA0222210942EA03326B
:102020000A4300688263F0BD1A432243F9E7B30A0A
:102030005B0143EAC222F3E7F40ADB0F640144EADE
:10204000822242EAC332EBE74161F0BD10B542EAB9
:10205000811141EA0321029C41EA0441C16610BD9D
:102060003EB5062500240095CDE90112014604483D
:1020700001F057F808B16FF0070420463EBD00009C
:10208000940705247CB5012B4FF000046FF0070581
:1020900008D8D25C0B46014608480092152201F090
:1020A000B6F806E0CDE9001239220146034800F0F7
:1020B000D5FF00B12C4620467CBD000094070524C6
:1020C00008B50068B0F1A04F12D10A48016841F08C
:1020D00010010160006800F01000009005485838B9
:1020E000016841F010010160016821F010010160F8
:1020F00008BD0000E44402582DE9F0479846164612
:1021000089460446DDF820A001F0FCF94FF47A7707
:10211000054607E001F0F6F9401BB84202D903205A
:10212000BDE8F0872068406FC007F3D0226846EA18
:10213000891141EA082141EA0A40D0660020EFE710
:10214000704700002DE9F74FDFF800A10025A6B089
:102150000DF1640BDAF80C100AEB411080688488EA
:10216000C788E01D814620F00700061B68E000BF1D
:102170004FEAD9012898012901FB050015D0022951
:1021800015D0017842788378080440EA0220184389
:10219000DAF80C200AEB4212D16902294FF0000153
:1021A00008D001230DF1040E3EE00078F0E700882E
:1021B00040BAEDE74FF0010E1AE000BFA4EB010CAE
:1021C000B444ACF1010C0EFA0CF3034201D01368D5
:1021D00000E05368C3F30728C3F3C40C4FEA980820
:1021E000DB0C4CEA481C4CEAC32C2BF811C0491CF0
:1021F000A142E3D3279919AA2346CDF800E0481C51
:10220000279019E0A4EB010CB444ACF1010C03FAE3
:102210000CFC1CEA000F02D0D2F8008001E0D2F8DA
:1022200004804EF82180491CA142EBD327997246C5
:1022300000932346481C2790269806F029FD6D1C24
:10224000BD4295D329B0BDE8F08F000090800524F1
:1022500072B6FEE7054805490839026822F0020215
:10226000026008688004FCD5704700000C480258E2
:10227000F0B5D1E90843CD690A68C2B102682543C7
:1022800022F4F84213431D430560D1E90125D1E949
:1022900003364C692A434568334389691A43EB0B7B
:1022A0002243DB030A431A4342600020F0BDD1E918
:1022B000012ED1E9036CD1E9057142EA0E0246EA2A
:1022C0000C0632433A430A4301682A4322431A4325
:1022D0006FF30E010A430260E7E7426943F6FE73BB
:1022E0009A4342EA410141610020704770B591E88C
:1022F0001C00C9686FF01F0506691A4305EB4414FA
:1023000044EA41210A4306EA45431A430261002098
:1023100070BD00002DE9F04F8B8A6FF00F05264C41
:102320004FF07F4BD1F80C9004EB03536FF0FF0498
:102330004FEA042A1AB386684FEA09321F4FA2F502
:1023400080521A433E4032438260D1E900278E68B2
:10235000521E05EB07150F8A2A43C56804EB0624B5
:102360000E7E0AEB074322431A430BEB06610A4336
:1023700005F070431A43C2600020BDE8F08F91E879
:1023800004110F4E521E0F8A05EB08152A4304EB69
:102390000C2C06EB09350E7E42EA0C022A438568B6
:1023A0000AEB074422431A430BEB06610A4305F08C
:1023B00070431A438260DFE70000F0FFFF0F0FFF5A
:1023C00000F0FFFFF0B590F86020012A22D0C1EBA9
:1023D000C102012780F86070022380F8613000EBB1
:1023E0008202284D138F168EB2F83CC0D46A1B05AA
:1023F000283244EA064643EA4C530A2C46EA0306CE
:102400000AD0092C08D0137B46EA036349B10B2C90
:102410001AD01DE00220F0BDD36803F07F433343A0
:10242000F4E701684C6AAC431C434C6201681368D2
:102430008B6151680A2901D009291BD1D168026832
:1024400021F07F41916215E0118B0F4D43EA8143EA
:102450000168CC69AC431C43CC61016813680B6113
:1024600051680A2901D0092904D1D168026821F0F4
:102470007F411162002180F8617080F86010084689
:10248000F0BD00000F0033FF0F003FFF2DE9F041CA
:10249000040004D094F86100002518B107E0012081
:1024A000BDE8F081204684F8605000F033F8184E03
:1024B000022084F861000123D4E90010D4F81CC084
:1024C00040F207120F6840EA0C00374038430860BA
:1024D0002068A769A168466B39439643314341633D
:1024E0002068E268016C6FF30F01114301642068FA
:1024F000218AA28A466B090541EA425126F440121C
:1025000011434163656684F861300020C8E700002C
:10251000BFFFF8FF70472DE9F84300260446042763
:102520000D4600964FF0030800680068C00726D0EB
:1025300000F0E8FF81461EE04068009010F0210F97
:1025400010D00098800603D5606E40F002006066EF
:102550000098C00703D0606E40F0010060662168FB
:10256000212035E0681C06D000F0CCFFA0EB09006C
:10257000A8424DD8A5B3206841688907DCD52068FA
:10258000C169406A01F0200100F02000084335D005
:1025900000F0B8FF81462DE04068009010F0290F50
:1025A0001FD00098000703D5606E40F004006066FD
:1025B0000098800603D5606E40F0020060660098C7
:1025C000C00703D0606E40F00100606621682920DA
:1025D000886084F86170012084F86060BDE8F88349
:1025E00016E0681C06D000F08DFFA0EB0900A842A1
:1025F0000ED86DB120684168C906CDD52268122178
:102600000120916084F86100002084F86060E5E7B3
:10261000616E84F8606041F02001616684F8618039
:102620000320DBE7F8B50446069894F86050012DC6
:1026300010D0012684F86060022584F86150009073
:102640002046FFF7B5FC2068016841F001010160F8
:102650000020F8BD0220F8BD2DE9F84F044600F037
:1026600051FF00903CB194F83500022806D080213B
:1026700061650020E4E00120BDE8F88FC74DC74E3A
:10268000C649183520683036DFF81483DFF8149314
:102690008842DFF814A3DFF814B328D0A84226D06C
:1026A000B04224D0404522D0484520D050451ED0CD
:1026B00058451CD0BD4A1832904218D0BC4A9042AE
:1026C00015D0BB4A1832904211D0B94A30329042EC
:1026D0000DD0B74A4832904209D0B54A6032904294
:1026E00005D0B34A7832904201D0B14A90320268A4
:1026F00022F001020260206888422ED0A8422CD02D
:10270000B0422AD0404528D0484526D0504524D054
:10271000584522D0A54A183290421ED0A44A904271
:102720001BD0A34A1832904217D0A14A30329042AF
:1027300013D09F4A483290420FD09D4A6032904257
:102740000BD09B4A7832904207D0994A90329042FF
:1027500003D0974AA832904209D1026822F01E02A3
:1027600002602068426922F08002426103E0026850
:1027700022F00E0202602768884938468F424DD009
:10278000A8424BD0B04249D0404547D0484545D0FB
:10279000504543D0584541D08449183188423DD0F6
:1027A000834988423AD082491831884236D08049DC
:1027B0003031884232D07E49483188422ED07C491F
:1027C000603188422AD07A497831884226D07849C7
:1027D0009031884222D07649A83188421ED075496E
:1027E00088421BD073491431884217D0714928316F
:1027F000884213D06F493C3188420FD06D49503127
:1028000088420BD06B496431884207D069497831DE
:10281000884203D067498C318F4214D1206E016801
:1028200021F4807101600EE000F06CFE0099401A06
:10283000052808D9202262650321002084F835107C
:1028400084F8340017E73868C007EDD1534A0121F6
:10285000206890422ED0A8422CD0B0422AD04045C9
:1028600028D0484526D0504524D0584522D04F4B3B
:10287000183398421ED04E4B98421BD04C4B183305
:10288000984217D04A4B3033984213D0484B4833C4
:1028900098420FD0464B603398420BD0444B78336C
:1028A000984207D0424B9033984203D0404BA83314
:1028B000984208D194F85C703F23A06D07F01F0781
:1028C000BB40836007E094F85C30A06D03F01F0309
:1028D00001FA03F34360206890424DD0A8424BD0E8
:1028E000B04249D0404547D0484545D0504543D0F7
:1028F000584541D02D4A183290423DD02C4A904242
:102900003AD02B4A1832904236D0294A303290427F
:1029100032D0274A483290422ED0254A6032904227
:102920002AD0234A7832904226D0214A90329042CF
:1029300022D01F4AA83290421ED01E4A90421BD07D
:102940001C4A1432904217D01A4A2832904213D0AF
:10295000184A3C3290420FD0164A503290420BD067
:10296000144A6432904207D0124A7832904203D01F
:10297000104A8C3290420BD1D4E919024260E06EC9
:1029800030B1026822F480720260D4E91C02426015
:10299000002084F8351084F834006DE61000024001
:1029A000580002407000024088000240A00002402F
:1029B00010040240085402582DE9F05F28B190F845
:1029C0003510022904D0802141650120BDE8F09F27
:1029D000764A764BDFF8D4C1183201683033744C34
:1029E000DFF8D0B16145744D744E754FDFF8D4E116
:1029F000DFF8D4A1DFF8D49131D091422FD09942A1
:102A00002DD0A1422BD0594529D0A94227D0B1427F
:102A100025D0B94223D0DFF8AC81A8F17808414530
:102A20001DD0DFF8A081A8F16008414517D0DFF87C
:102A30009481A8F14808414511D0DFF88881A8F1B8
:102A4000300841450BD0DFF87C81A8F118084145DA
:102A500005D0714503D0514501D049452AD14FF0E9
:102A6000040880F8358061451FD091421DD09942FD
:102A70001BD0A14219D0594517D0A94215D0B14257
:102A800013D0B94211D04F48783881420DD04D480B
:102A90006038814209D04B484838814205D04948C6
:102AA0003038814201D047481838086820F00100CA
:102AB000086078E0D1F8008028F00108C1F80080B3
:102AC0000168D1F8008028F00E08C1F80080016884
:102AD000614546D0914244D0994242D0A14240D073
:102AE00059453ED0A9423CD0B1423AD0B94238D043
:102AF000344A783A914234D0324A603A914230D0E6
:102B0000304A483A91422CD02E4A303A914228D04D
:102B10002C4A183A914224D0714522D0514520D0F8
:102B200049451ED02A4A91421BD0294A143291426B
:102B300017D0274A2832914213D0254A3C3291427D
:102B40000FD0234A503291420BD0214A6432914235
:102B500007D01F4A7832914203D01D4A8C329142ED
:102B600018D1026E0121136823F48073136090F86A
:102B70005C30826D03F01F0399405160D0E9191257
:102B80004A60C16E31B10A6822F480720A60D0E9ED
:102B90001C124A600122016D002380F8352080F864
:102BA000343001B18847002010E7000010000240D7
:102BB000580002407000024088000240A00002401D
:102BC000B800024088040240A0040240B804024059
:102BD0000854025810B5027C012A0ED0012202745A
:102BE00002680024D36A23F01F03D3620268D36A09
:102BF0000B43D3620474204610BD022010BD70B593
:102C0000027C012A6AD0012202740268536B23F00D
:102C1000010353630268D2F8003423F00103C2F8C1
:102C200000340268936B23F0030393630268CC685B
:102C3000936B234393630268D36B6FF30D03D363EA
:102C400002680C69D36B2343D3630268136C6FF380
:102C50000C03136402684C69136C23431364026809
:102C6000536C6FF30C03536402688C69536C2343F9
:102C700053640268D36823F00303D36002680C68CE
:102C8000D3682343D3600268536923F00703536179
:102C90000268D1E90845CE69536934432B43234385
:102CA00053610268136923F00F03136102684C68D3
:102CB0001369234313610268D2F8003423F00E0332
:102CC000C2F8003402684B68D2F8004444EA430377
:102CD000C2F800344A68032A02D00BE0022070BD1B
:102CE0000268136923F48073136102688C681369A6
:102CF0002343136102680023946C6FF30B04946404
:102D000002688D6A946C2C4394640268D46C6FF3EF
:102D10000B04D4640268CD6AD46C2C43D46402687A
:102D2000146D6FF30E04146502680D6B146D2C4363
:102D300014650268546D6FF30904546502684D6BA5
:102D4000546D2C4354650268946D6FF309049465C7
:102D500002688D6B946D2C4394650268D46D6FF39B
:102D60000904D4650268CD6BD46D2C43D465026828
:102D7000146E6FF30D04146602680D6C146E2C4310
:102D800014660268946B24F40044946302684D6CEA
:102D9000946B2C4394630268946924F47F049461D7
:102DA0000268B1F84840956945EA044494610268B4
:102DB000946924F0FF0494610268CD6C94692C43FB
:102DC00094610268946B24F40054946302680D6D5E
:102DD000946B2C4394630268946B24F48054946342
:102DE00002684D6D946B2C4394630268946B24F4D9
:102DF0000064946302688D6D946B2C439463026845
:102E0000946B24F4806494630268CD6D946B2C43BE
:102E100094630268946B24F40074946302680D6EEA
:102E2000946B2C4394630268946B24F480749463D1
:102E300002684D6E946B2C4394630268946B24F487
:102E40008044946302688C6E916B21439163037498
:102E5000002070BD2DE9F84304000D4602D0607CCF
:102E600018B105E00120BDE8F883204600F058F9CC
:102E70000320607420684FF00009D0F8301441F04E
:102E80008071C0F830142068D0F8300400F08070F1
:102E9000009000F037FB4FF47A77064605E000BF5C
:102EA00000F030FB801BB84235D82068D0F80C0405
:102EB000C004F5D52068674AD0F830141140C0F836
:102EC00030142068D5E900212B89D0F830644FEA0E
:102ED000C12C46EA82014CEA03421143C0F8301487
:102EE0002068D0F8301441F00101C0F83014206897
:102EF000D0F8300400F001000090012000F0BAF991
:102F000000F000FB0646B84607E000BF00F0FAFA02
:102F1000801B404501D90320A5E72068D0F80C04A8
:102F2000C005F3D520684E46416841F0010141607B
:102F30002068416801F001010091816821F0FF01E2
:102F400081602068A2688168114381602068D0F8A0
:102F5000A01041F00201C0F8A0102068D0F8A01025
:102F600041F00401C0F8A0102068D0F8A41021F0AE
:102F70000301C0F8A4102068E268D0F8A41011433F
:102F8000C0F8A41000F0BEFA07462068D0F8A400EC
:102F9000800715D0C1464FF094082168D1F8B010D1
:102FA00038EA010014D000F0ADFAC01B4845F4D94E
:102FB0002674B0E700F0A6FAC01B404502D9F7E737
:102FC0004FF014092168D1F8B01039EA0100F1D1AD
:102FD000686800B90120204F22682B7A296878435D
:102FE000D2F8185446F2A81703F00303794325F0EA
:102FF0003F05C2F818549840B0FBF1F02268D2F8AF
:1030000018140143C2F818142068C0F8C46020687E
:10301000C0F8C860A6612068416821F001014160E4
:103020002068416801F001010091D0F8941001225C
:1030300021F00301C0F89410D4E90003D0F89410F3
:10304000194341F00101C0F89410666162740020D8
:1030500009E700000386FCFF00093D002DE9FF4F52
:1030600081B00446007C1D469346DDE90EA601288A
:1030700009D00120207400F045FA4FF47A79074610
:103080004FF000080DE0022005B0BDE8F08F00BF52
:1030900000F038FAC01B484503D9032084F810809B
:1030A000F2E72068406FC007F2D0032D504602D2ED
:1030B00000212B4608E003230021082707EBC10766
:1030C000725CBA401043491C9942F6D32168EA1A4F
:1030D0003344086714E0042A01D2164600E00426AF
:1030E0000021084606E01F5C4FEAC00C07FA0CF707
:1030F0003943401CB042F6D32068921B3344016729
:10310000002AE8D16D1C02995A46C5F307200090A9
:103110002068EBB2FEF79AFF002084F81080B3E736
:1031200070472DE9F84F0446007C8B461746DDE9D1
:103130000A8ADDF8309001281D460FD001204FF09B
:103140000006022D20740CD9C5F307200090372209
:103150002046EBB2FEF7D0FF90BB02E00220BDE8B4
:10316000F88FB8F1060F09D0B8F1040F0AD0B8F102
:10317000140F0BD0B8F1240F0AD040E0009653464C
:1031800020680BE000960023206807E0009602E02C
:1031900099F80100009099F800302068424659469D
:1031A000FEF754FF00F0AEF980462BE02068416F37
:1031B000C90612D4026F042D03D200202B460AE068
:1031C0001DE0042300204FEAC00C22FA0CF1401C41
:1031D0006D1E07F8011B9842F5D300F093F9A0EBA0
:1031E0000800B0F57A7F02D903202674B7E720687B
:1031F000416F490606D4D0F8C000800602D50120F0
:103200002674ACE7002DD1DC00202674A7E738B582
:1032100004460498257C012D08D0012525740090D2
:103220002046FEF769FF0021217438BD022038BD19
:1032300008B5017C01291BD001210174016800221D
:103240004B6843F001034B6001684B6803F00103D6
:103250000093D1F8043443F00803C1F80434016842
:10326000D1F8041401F0080100910274002008BD97
:10327000022008BD70B5044600F044F90546601C04
:1032800002D004480078044400F03CF9401BA042FE
:10329000FAD370BD58FD04240248016841F00101D1
:1032A00001607047200400582DE9F84F03247F4D3A
:1032B00000234FF001094FF0B04B4FF00F0AEDE043
:1032C00009FA03F632407AD00F7907F00307012F8D
:1032D00001D0022F19D187684FEA430ED1F80CC0F4
:1032E00004FA0EF827EA08070CFA0EFC4CEA070C61
:1032F000C0F808C0D0F804C00F792CEA060CC7F358
:1033000000179F4047EA0C0747600E79F643B6075F
:1033100002D18E68012E0BD0C6684FEA43088F6831
:1033200004FA08FC26EA0C0607FA08F73743C760D8
:103330000E7906F00306022E12D1DE080F694FEA5D
:10334000437C00EB8606B646366A4FEADC6C0AFA26
:103350000CF807FA0CF726EA08063743CEF8207077
:103360000F7906684FEA430807F0030704FA08FCE0
:1033700007FA08F726EA0C06374307604E6816F48A
:10338000403F1CD04A4E376847F002073760366826
:103390009F0706F00206009623F0030606F1B046EA
:1033A000B6463F0FD6F80864DFF808810AFA07FC32
:1033B000404526EA0C0603D14FF0000C41E06CE0DA
:1033C000DFF8F4C0604502D14FF0010C39E0DFF8BE
:1033D000ECC0604502D14FF0020C32E0DFF8E0C0F3
:1033E000604502D14FF0030C2BE0DFF8D8C06045F8
:1033F00002D14FF0040C24E0DFF8CCC0604502D1CC
:103400004FF0050C1DE0DFF8C4C0604502D14FF05D
:10341000060C16E0DFF8B8C0604502D14FF0070C8B
:103420000FE0DFF8B0C0604502D14FF0080C08E0B3
:10343000DFF8A4C0604502D14FF0090C01E04FF065
:103440000A0C0CFA07FC4CEA060CCEF808C44F68CC
:10345000DBF80060FF0226EA020600D516435F464D
:10346000CBF80060D1F804C0DBF804605FEA8C2C74
:1034700026EA020600D516437E606E684F6826EA8B
:103480000206BF0300D516436E602E684F6826EA19
:103490000206FF0300D516432E605B1C0A6832FA51
:1034A00003F67FF40DAFBDE8F88F000080000058F0
:1034B000F444025800000258000402580008025860
:1034C000000C02580010025800140258001802584C
:1034D000001C02580020025800240258426921EAC8
:1034E00002030A4043EA0241816170470AB18161E7
:1034F00070470904FBE7000001480068000C7047B2
:103500000010005C014880687047000058FD0424EA
:10351000054901EB80010548D1F88014814201D1B1
:1035200000207047012070470060025800030080AF
:10353000034A41F4407102EB8000C0F80014704768
:103540000060025802488168027811448160704727
:1035500058FD0424032010B500F0B8F901F0B6FBC3
:103560000F4A104914681368C4F3032203F00F03D1
:103570008A5CC95C02F01F0201F01F01D0400A4AB8
:1035800020FA01F1116009490860002000F010F8EC
:1035900008B1012010BD00F05DF9002010BD000051
:1035A00018440258F4C8000868FD042464FD04248B
:1035B00070B50D4D04462878A0B14FF47A71B1FB77
:1035C000F0F00A490968B1FBF0F001F085FF48B955
:1035D000102C07D200222146501E00F057F900207F
:1035E0006C6070BD012070BD58FD042464FD04248E
:1035F0002DE9F041044690F8A00016460F46012838
:103600001DD0012584F8A050022084F8A10006EB0B
:10361000860000EBC600342204EB80003830FDF752
:10362000F1F832463946204602F064FC2168002059
:103630004D6284F8A15084F8A000BDE8F08102201A
:10364000FBE72DE9F041040004D094F8A100002527
:1036500018B107E00120BDE8F081204684F8A050B1
:1036600000F04FF8022084F8A1002068012381694E
:1036700021F070418161D4E90010D4E90272266919
:10368000384332438E691043304388612268A08AF0
:10369000A16941EA004191602268A08B216A41EA58
:1036A0000041D1602268A08CA16A41EA0041116109
:1036B0002268A08D216B41EA00415161226894F893
:1036C000351094F83600D66A000406F07F46D662BC
:1036D000226840EA012094F83460D16A3143014302
:1036E000D1622068416B41F0060141632068816925
:1036F00041F001018161C4F8A45084F8A130002098
:10370000A9E7704710B530B3026800211F23D468C1
:1037100024F00104D4600268D1600268116102687B
:103720005161026891610268D161026811620268A8
:103730005162026891620268116302685163026813
:103740005360C16501664166816680F83D1080F86E
:103750003C10002010BD012010BD70B50446FFF7DD
:10376000D1FE06465CB1002584F83C50022084F866
:103770003D002068C16821F00101C1600CE001201A
:1037800070BDFFF7BFFE801B052805D94021A1664B
:10379000032084F83D00F2E72068C068C007F0D13C
:1037A000204602F07FFCE565012025666566A5667A
:1037B00084F83D00002070BD154BF0B5083B427801
:1037C00013491A600B680A1F23F001030B6043685A
:1037D0001360057BC67A827A437B2D07847B45EA9A
:1037E0000665C77B90F809C0067A90F800E045EAC4
:1037F000C24040EA834040EA444040EA074040EA91
:103800000C2040EA460040EA0E000860F0BD0000CF
:10381000A0ED00E0BFF35F8F044800210368034A76
:1038200023F48033036070321160704724ED00E0B0
:10383000074A40F00100064970321060086840F401
:1038400080300860BFF34F8FBFF36F8F7047000069
:1038500024ED00E0054808B5016841F0020101606F
:10386000006800F00200009008BD0000F444025817
:10387000002809DB410900F01F028900012001F145
:10388000E0219040C1F80001704700000E4BF0B4F9
:103890001B680D46C3F30223C3F10706042E00D9AB
:1038A0000426191D072901D2002300E0DB1E012494
:1038B00004FA06F19C40491E2940641E99401440B8
:1038C0002143F0BC05F0A8BA0CED00E0064900F079
:1038D000070210B54FF6FF040868044B204040EA89
:1038E00002201843086010BD0CED00E00000FA054E
:1038F0002DE9F0411E4C0546206800F0070006281F
:10390000206804D000F03F00A84228D12EE020F02B
:103910003F0028432060FFF7F5FD154F4FF47A78FC
:103920000646083F05E000BFFFF7ECFD801B404561
:1039300015D83868C0438004F6D41E2D05D02E2D2E
:1039400003D01D2D01D02D2D10D1FFF7DBFD054635
:10395000464607E0FFF7D6FD401BB04202D90120E2
:10396000BDE8F0812068C043C003F3D40020F7E72E
:103970000C4802582DE9F84F1E4615468A46044663
:10398000FFF7C0FD814694F8400001280ED00127C2
:103990004FF0000884F8407094F84100012807D0E7
:1039A0005FF0020084F84080BDE8F88F0220FBE75A
:1039B0004221C4F8448084F84110002220214B4663
:1039C0002046009604F078F90028EBD12168286899
:1039D00088622168686848622168A868C8622068AF
:1039E0002969026822F4400242F480021143016016
:1039F000E9684FF000622046CAF82810514603F0EB
:103A000030FF01224B4608212046009604F054F96D
:103A10000028C7D122680821D16084F84170C1E72D
:103A20002DE9F84F17468B460446FFF76BFD82469B
:103A300094F8400001280ED001264FF0000884F8C9
:103A4000406094F84100012807D0022584F84080A6
:103A50002846BDE8F88F0220FBE74FF00209C4F8C2
:103A6000448084F84190002220215346204600974C
:103A700004F022F90500E9D100225946204603F05E
:103A8000F0FEDBF8240058B90122534602212046FB
:103A9000009704F011F90500D8D12168C1F80C9005
:103AA00084F84160D2E70000F8B50446FFF72AFD2C
:103AB00005461CB194F8410010B107E00120F8BDA3
:103AC000204600F08DF841F28830A06420686FF045
:103AD000FF02A168036802EB012223F4F8511143AD
:103AE0000160A06C002220212B460090204604F0AB
:103AF000E3F80028E3D12268D4E907352679E168A4
:103B0000176845EA0665DFF844C01943104B29439E
:103B10000025012607EA0C07394311602268D4E921
:103B20000517B4F810C0D2F804E039430EEA030ECA
:103B30004EEA0C431943516021680A6842F00102C1
:103B40000A60656484F84160F8BD00002FFFFF0043
:103B5000FEF8E0FF2DE9F843164688460446FFF7D5
:103B6000D1FC034694F8400001280ED0012084F8CF
:103B70004000002794F84100012808D05FF00205BA
:103B800084F840702846BDE8F8830220FBE7A06C6B
:103B90008221676484F84110002220210090204691
:103BA00004F08AF80500EBD120687268016821F002
:103BB000080111430160706808280AD122681021A9
:103BC000306810632068C1602068016841F480118A
:103BD00001604FF040624146204603F042FECFE7CD
:103BE00070472DE9F84F15460E460446FFF78AFC4C
:103BF00082462068816994F8403000F12009012B49
:103C00000DD001274FF0000884F8407094F841204F
:103C1000012A06D0022084F84080BDE8F88F0220F7
:103C2000FBE7C4F84480A6B3222284F8412002694D
:103C3000521CA2630269521C62632663426922F02D
:103C4000406242F080624261206881610EE006219C
:103C5000204604F031F8C8B999F80000216B0870CB
:103C6000206B401C2063A06B401EA063A06B5346DA
:103C70004FF0010200950028E9D14FF002012046E3
:103C800004F01AF810B922680221D16084F841705A
:103C9000C1E7FFE7616C012041F008016164BAE708
:103CA0002DE9F84F15460E460446FFF72BFC94F815
:103CB000401082462068012900F120090ED001271A
:103CC0004FF0000884F8407094F84110012907D0A3
:103CD0005FF0020084F84080BDE8F88F0220FBE727
:103CE000C4F8448086B3122184F841100169491C4C
:103CF000E1620169491CA1626662416921F040618B
:103D000041610EE00421204603F0D6FFC8B9606A85
:103D1000017889F80010606A401C6062E06A401E09
:103D2000E062E06A53464FF0010200950028E9D1B5
:103D30004FF00201204603F0BFFF10B922680221B4
:103D4000D16084F84170C5E7FFE7616C012041F064
:103D500008016164BEE7000010B500F071FF05497D
:103D60000968054AC1F30211515C01F01F01C84006
:103D700010BD000020440258F4C80008494930B57D
:103D8000484C0B1D0A68143409681D68246802F049
:103D90000303C5F30012C1F30531C4F3CC040029B9
:103DA00014FB02F200EE102AF8EE400A75D03F4AEA
:103DB0009FED3D1AB7EE000A6BB1DFED3D1A012B06
:103DC00001D0022B64D002EE101A1168F8EE422ADC
:103DD00081EEA22A21E0334C283C23689B0612D5B1
:103DE000344B246801EE901A1168C4F3C104F8EE54
:103DF000612AE34001EE903AC1F30801F8EE611A3E
:103E000081EEA22A0BE001EE901ADFED2B2A00BF13
:103E1000F8EE611A116882EEA12AC1F3080101EEE1
:103E2000901A1168F8EE611A40EE811A71EE800A5C
:103E300062EE200AC1F3462101EE101AB8EE411AD3
:103E400031EE001AC0EE811ABCEEE11A80ED001AC4
:103E50001168C1F3064101EE101AB8EE411A31EEB5
:103E6000001AC0EE811ABCEEE11A80ED011A116849
:103E7000C1F3066101EE101AB8EE411A31EE000AE4
:103E800080EE801ABCEEC10A80ED020A30BD04E06B
:103E900001EE901ADFED092ABAE7002101604160C6
:103EA0008160F3E728440258000000393844025882
:103EB0000024744A0090D0030024744C20BCBE4BF4
:103EC000494930B5484C0B1D0A681C3409681D6807
:103ED000246802F00303C5F30022C1F30551C4F3C3
:103EE000CC04002914FB02F200EE102AF8EE400A7E
:103EF00075D03F4A9FED3D1AB7EE000A6BB1DFED7A
:103F00003D1A012B01D0022B64D002EE101A116869
:103F1000F8EE422A81EEA22A21E0334C283C2368A5
:103F20009B0612D5344B246801EE901A1168C4F335
:103F3000C104F8EE612AE34001EE903AC1F30801B2
:103F4000F8EE611A81EEA22A0BE001EE901ADFED85
:103F50002B2A00BFF8EE611A116882EEA12AC1F384
:103F6000080101EE901A1168F8EE611A40EE811A0C
:103F700071EE800A62EE200AC1F3462101EE101AAA
:103F8000B8EE411A31EE001AC0EE811ABCEEE11A09
:103F900080ED001A1168C1F3064101EE101AB8EE67
:103FA000411A31EE001AC0EE811ABCEEE11A80ED22
:103FB000011A1168C1F3066101EE101AB8EE411A38
:103FC00031EE000A80EE801ABCEEC10A80ED020AD2
:103FD00030BD04E001EE901ADFED092ABAE70021B6
:103FE000016041608160F3E7284402580000003915
:103FF000404402580024744A0090D0030024744CBA
:1040000020BCBE4B2DE9FE4F0546DFF8E89350F883
:10401000081B0024F74FC943009005F128002646ED
:1040200009F12409019008011DD4E86E50B1B0F5E2
:10403000801F0CD0B0F5001F0ED0B0F5401F1ED071
:1040400001240FE0386840F40030386017E0009831
:10405000022103F055FE03E00198022103F0E0FE87
:1040600004000CD026462888C043C00523D4E86D40
:1040700005281ED2DFE800F00C11161B1B00EA6EAB
:10408000D9F8001021F440111143C9F80010EAE7F3
:10409000386840F40030386009E00098002103F0EF
:1040A0002FFE03E00198002103F0BAFE044674B12C
:1040B00000E0012426462888C043800528D4286EC5
:1040C00080281ED00CDC90B140280ED114E0EA6D9F
:1040D000D9F8001021F007011143C9F80010EAE7F0
:1040E000C02813D0B0F5807F10D001240FE03868CD
:1040F00040F40030386009E00098002103F000FE31
:1041000003E00198002103F08BFE04469CB1264693
:104110002888DFF8E082C04308F12C0840052CD441
:10412000D5F8AC00B0F5800F20D00DDCA0B1B0F513
:10413000001F0FD115E02A6ED9F8001021F4E071AC
:104140001143C9F80010E3E7B0F5C00F13D0B0F584
:10415000000F10D001240FE0386840F400303860C0
:1041600009E00098002103F0CBFD03E00198002155
:1041700003F056FE04467CB126462888C04300055D
:104180002DD4D5F8B000B0F1007F21D00EDCA8B15D
:10419000B0F1807F10D116E0D5F8AC20D8F800102F
:1041A00021F460011143C8F80010E6E7B0F1407F48
:1041B00013D0B0F1806F10D001240FE0386840F4C4
:1041C0000030386009E00098002103F099FD03E019
:1041D0000198002103F024FE044694B12646286885
:1041E000DFF810B2C0430BF1200B80011FD4E86C44
:1041F000D8B110280FD0202812D0302815D0012493
:1042000014E0D5F8B020D8F8001021F0E061114397
:10421000C8F80010E3E7386840F40030386004E084
:104220000098022103F06CFD044674B126462888EC
:10423000C043C0042BD4686EB0F5005F20D00DDC05
:10424000A0B1B0F5805F0FD115E0EA6CDBF800108B
:1042500021F030011143CBF80010E8E7B0F5405FE2
:1042600013D0B0F5804F10D001240FE0386840F42F
:104270000030386009E00098002103F041FD03E0C0
:104280000198002103F0CCFD04468CB12646288815
:10429000C043800429D4A86EB0F5403F23D010DC81
:1042A00008B3B0F5803F14D0B0F5003F0FD115E052
:1042B0006A6ED9F8001021F4E0411143C9F80010EA
:1042C000E5E7B0F5802F0ED0B0F5A02F0BD001247C
:1042D0000AE00098012103F013FD03E00198012199
:1042E00003F09EFD044694B126462888C04340044E
:1042F0002AD4D5F8B400B0F1405F23D010DC08B365
:10430000B0F1805F14D0B0F1005F0FD115E0AA6E5C
:10431000D9F8001021F4E0211143C9F80010E4E7B6
:10432000B0F1804F0ED0B0F1A04F0BD001240AE0C5
:104330000098012103F0E4FC03E00198012103F05F
:104340006FFD04465CB126462868C043400117D47F
:10435000286D98B1B0F5807F0BD001240FE0D5F81F
:10436000B420D8F8001021F0E0411143C8F8001043
:10437000EAE70098012103F0C3FC044674B1264625
:104380002888C04300041ED4686FD0B1B0F1805FAC
:104390000DD0B0F1005F0FD0012413E02A6DDBF8DF
:1043A000001021F480711143CBF80010E8E7386861
:1043B00040F40030386004E00098012103F0A0FCD4
:1043C000044674B126462868C043C00120D4A86CB6
:1043D000E0B1012810D0022813D0032816D0012400
:1043E00015E06A6FD9F8001021F040511143C9F867
:1043F0000010E8E72C440258386840F40030386078
:1044000004E00098022103F07BFC04466CB12646D0
:104410002868C04340024DD4FA48016841F48071D5
:104420000160FFF76FF882460EE0AA6CDBF800101F
:1044300021F003011143CBF80010E9E7FFF762F820
:10444000A0EB0A00642833D8EE480068C005F5D513
:104450007CBBDFF8B4A3B5F8B810DAF8000001F4BB
:10446000407100F44070884211D0DAF80010DAF898
:10447000002021F4407142F48032CAF80020DAF8BA
:10448000002022F48032CAF80020CAF80010D5F8C3
:10449000B800B0F5807F1AD1FFF734F8029012E02F
:1044A000FFF730F80299411A41F2883081420AD967
:1044B000032426462878DFF850A3C043AAF11C0A3B
:1044C000C00721D03DE0DAF800008007E8D5D5F834
:1044D000B810C1F301200328CC480DD0016821F4A5
:1044E0007C510160B5F8B820DAF80010C2F30B0275
:1044F0001143CAF80010DDE7C54A036802EA111249
:1045000023F47C511143ECE7D5F88000182816D02D
:1045100005DCA0B1082808D0102804D10AE0202822
:104520000DD028280BD001240AE00098012103F0C7
:10453000E7FB03E00198012103F072FC044664B13B
:1045400026462878C04380071FD4E86F06281AD271
:10455000DFE800F0170D12171717D5F88020DAF8EA
:10456000001021F038011143CAF80010E9E7009863
:10457000012103F0C5FB03E00198012103F050FC89
:1045800004467CB100E0012426462878C043400759
:104590001FD4D5F89800062819D2DFE800F0160CD1
:1045A00011161616EA6FDAF8001021F00701114310
:1045B000CAF80010E9E70098012103F0A1FB03E02D
:1045C0000198012103F02CFC0446A4B100E0012471
:1045D00026462878C04380062BD4D5F89400B0F145
:1045E000405F24D011DC10B3B0F1805F15D0B0F182
:1045F000005F10D116E0D5F89820D8F8001021F00F
:1046000007011143C8F80010E3E7B0F1804F0ED066
:10461000B0F1A04F0BD001240AE00098002103F074
:104620006FFB03E00198022103F0FAFB044694B10A
:1046300026462878C04340062BD4D5F8A000B0F514
:10464000406F24D011DC10B3B0F5806F15D0B0F5F9
:10465000006F10D116E0D5F89420DAF8001021F0A0
:10466000E0411143CAF80010E3E7B0F5805F0ED0D7
:10467000B0F5A05F0BD001240AE00098002103F000
:104680003FFB03E00198022103F0CAFB044694B10A
:1046900026462878C04300062BD4D5F8A400B0F5F0
:1046A000C04F24D011DC10B3B0F5005F15D0B0F5C9
:1046B000804F10D116E0D5F8A020D8F8001021F4D2
:1046C000E0511143C8F80010E3E7B0F5004F0ED0F9
:1046D000B0F5204F0BD001240AE00098002103F030
:1046E0000FFB03E00198022103F09AFB044654B14A
:1046F00026462878C04300071ED4D5F88800B0F5B8
:10470000805F0AD00FE0D5F8A420D8F8001021F47B
:1047100060411143C8F80010EBE70198022103F053
:104720007FFB00B10126D5F88820DAF8001021F4CB
:1047300040511143CAF800102878C043C00613D472
:10474000D5F89C00B0F5807F05D10198022103F0D7
:1047500067FB00B10126D5F89C20D8F8001021F4A1
:1047600040711143C8F800102868C043000316D4F4
:10477000D5F8A80038B1B0F5803F09D0B0F5003FBA
:104780000BD001240AE00098002103F0B9FA03E0FD
:104790000198022103F044FB04468CB126462868A8
:1047A000C043400322D4D5F88C00B0F5801F11D04F
:1047B000B0F5001F13D0B0F5401F15D0012414E050
:1047C000D5F8A820D8F8001021F440311143C8F8DA
:1047D0000010E4E7386840F40030386004E00198E5
:1047E000012103F01DFB0446A4B126462868C043FE
:1047F000C00325D4686DB8B1B0F5803F19D001244D
:104800001DE000000048025870440258104402584D
:10481000CFFFFF00D5F88C20DAF8001021F440110A
:104820001143CAF80010E1E7386840F400303860FE
:1048300004E00098022103F063FA0446E4B126463E
:104840002868C043800005D40198022103F0E8FAEB
:1048500000B101262868C04380031CD4D5F8840029
:10486000B8B1B0F5807F10D0B0F5007F11D0B0F5B1
:10487000407F0ED001240DE06A6DDBF8001021F4BA
:1048800080311143CBF80010DAE7386840F400308B
:104890003860E4B326462868C043C00207D4AA6F34
:1048A000D9F8001021F000411143C9F80010286820
:1048B000C043C00007D44A48D5F8BC20016821F4A1
:1048C0008041114301602868C043800207D42A6FE9
:1048D000D9F8001021F080711143C9F80010286840
:1048E000C043400009D43E48016821F40041016002
:1048F0000168D5F8C020114301602868C04309D47D
:10490000AA6DDBF8001021F04051114300E016E0E1
:10491000CBF800102868C043000208D4D5F89020D6
:10492000DAF8001021F440011143CAF80010287988
:104930000024C04300F0010020430AD00FE0D5F866
:104940008420DAF8001021F440711143CAF80010F5
:10495000A1E70098002103F0D3F900B106462879B9
:10496000C04300F00200204305D10098012103F06C
:10497000C7F900B106462879C04300F0040020437F
:1049800005D10098022103F0BBF900B10646287951
:10499000C04300F00800204305D10198002103F036
:1049A0003FFA00B106462879C04300F010002043CA
:1049B00005D10198012103F033FA00B106462879A8
:1049C000C04300F02000044304D10198022103F009
:1049D00027FA00B916B10120BDE8FE8F0020FBE7E1
:1049E000104402582DE9F05F04000F467ED0DFF836
:1049F0003882D8F8000000F00F00B8420CD2D8F886
:104A0000001021F00F013943C8F80010D8F8000059
:104A100000F00F00B84269D12078844D40070AD5D4
:104A20002069296801F07001884204D9296821F0C1
:104A300070010143296020787C4E361D00070AD59D
:104A40006069316801F07001884204D9316821F051
:104A50007001014331602078C0060AD5A069316831
:104A600001F4E061884204D9316821F4E061014336
:104A700031602078DFF8B4B180060BF1080B0CD55B
:104A8000E1695846DBF8002002F07002914204D937
:104A9000026822F070020A430260207880070AD57B
:104AA000E068296801F00F01884204D9296821F0E3
:104AB0000F01014329602078C0073ED05B49A268FE
:104AC0002868183920F47060104328606068022854
:104AD00018D0032819D00968012819D049070029DE
:104AE0004ADADFF848A1AAF1080A00E044E0DAF85F
:104AF000002022F007020243CAF80020FEF702FD60
:104B0000814612E009688903E9E709688901E6E757
:104B1000C905E4E7FEF7F6FCA0EB090141F2883095
:104B2000814202D90320BDE8F09F6168DAF80000F5
:104B300000F03800B0EBC10FECD1207880070AD527
:104B4000E068296801F00F01884204D2296821F049
:104B50000F0101432960D8F80010404601F00F0111
:104B6000B9420BD9016821F00F0139430160006897
:104B700000F00F00B84201D00120D4E720784007B0
:104B80000AD52069296801F07001884204D2296899
:104B900021F0700101432960207800070AD560697F
:104BA000316801F07001884204D2316821F070014F
:104BB000014331602078C0060AD5A069316801F44C
:104BC000E061884204D2316821F4E0610143316040
:104BD000207880060CD5E1695846DBF8002002F009
:104BE0007002914204D2026822F070020A4302600D
:104BF00000F06CF80E492A682B68C2F3032203F018
:104C00000F038A5CC95C02F01F0201F01F01D04053
:104C1000084A20FA01F11160074908600748006856
:104C2000BDE8F05FFEF7C4BC0020005218440258F3
:104C3000F4C8000868FD042464FD04245CFD042419
:104C400030B500F043F80B4A0B490C4B156814685B
:104C5000C5F3032204F00F048A5C095D02F01F0211
:104C600001F01F01D040064A20FA01F119601060DE
:104C7000084630BD18440258F4C8000868FD0424F2
:104C800064FD042400B5FFF7DBFF05490968054A08
:104C9000C1F30211515C01F01F01C84000BD0000CA
:104CA0001C440258F4C8000800B5FFF7C9FF0549C5
:104CB0000968054AC1F30221515C01F01F01C84097
:104CC00000BD00001C440258F4C80008454970B5F6
:104CD00045480968434B103B11F0380208D00111D8
:104CE000082A03D0102A0BD0182A0BD0084670BD12
:104CF00019688906FBD51968C1F3C101C84070BDA8
:104D00003A4870BD3749374D18310C1D24350A68B3
:104D1000096826682D6802F0030406F00102C1F359
:104D20000511C5F3CC0515FB02F200EE102AB8EE12
:104D3000400AE9B32F4ADFED2E0AB7EE001A6CB134
:104D4000DFED2D1A012C01D0022C43D002EE101AF7
:104D50001068F8EE422A81EEA22A1EE01C68A40622
:104D600011D51B6801EE901A1168C3F3C103F8EE68
:104D7000612AD84001EE900AC1F30800F8EE611AEA
:104D800081EEA22A0BE001EE901ADFED1C2A00BF93
:104D9000F8EE611A106882EEA12AC0F3080001EE55
:104DA000900AF8EE611A40EE201A31EE810A00E016
:104DB00015E022EE000A1068C0F34620401C00EE09
:104DC000900AF8EE600A80EE201ABCEEC10A10EEDE
:104DD000100A70BD01EE901ADFED092AD8E7002015
:104DE00070BD0000104402580090D00340787D014F
:104DF00000000039304402580024744A0024744CE6
:104E000020BCBE4BF0B50D461F49204C002887B092
:104E100016464FF000004FF002020F684FF00303F8
:104E200019D047F004070F60096801F004010591EB
:104E300011020091CDE90120CDE903301448694603
:104E4000FEF732FA206845EAC61120F07E4008439A
:104E5000206007B0F0BD47F001070F60096801F05E
:104E6000010105914FF480710091CDE90120CDE958
:104E7000033008486946FEF717FA2068354320F0EA
:104E8000FE702843E4E70000E04402581044025852
:104E900000080258000002582DE9F05F04007DD0A0
:104EA000FF4F2078FE4D1837DFF8F493103DC00710
:104EB00048D0D9F80000396800F03800102815D023
:104EC000182803D101F0030002280FD06068B0F564
:104ED000803F12D010B1B0F5A02F18D0286820F470
:104EE00080302860286820F4802009E0286880034A
:104EF00028D560680028D2D024E0286840F48030AB
:104F00002860606888B1FEF7FDFA064609E0286867
:104F100040F480202860F0E7FEF7F4FA801B642854
:104F20006FD828688003F7D50CE0FEF7EBFA064649
:104F300005E000BFFEF7E6FA801B6428F0D8286879
:104F40008003F7D4207841F20308D54E0C3E800749
:104F500069D5D9F80000396810F038000ED018284B
:104F600001D188070AD0E06890B3296821F01901BF
:104F700001432960FEF7C6FA824631E028684007FF
:104F800002D5E06800288AD0E168286820F019007E
:104F900008432860FEF7B6FA824607E0DFE000BF6C
:104FA000FEF7B0FAA0EB0A000228B9D8286840073B
:104FB000F6D500BFFEF7A0FA40451BD8206940286F
:104FC00012D0316821F47C3141EA003030602AE0AF
:104FD00018E000BFFEF796FAA0EB0A0002289FD85F
:104FE00028684007F6D5E5E7306820F47C3040F4C7
:104FF0000030EBE7207C316821F0FE4141EA00609F
:10500000E4E70DE1286820F001002860FEF77AFA55
:10501000824605E0FEF776FAA0EB0A0002288DD85A
:1050200028684007F6D42078C0065DD5D9F800007E
:10503000DFF86CB2396800F03800ABF1040B0828D7
:1050400010D0182803D101F0030001280AD0E0692C
:105050000028286838D040F080002860FEF752FA17
:10506000824623E02868C00523D5E069802876D1F0
:105070001FE0206A202821D0316821F0F84141EA60
:105080008060306030E000BF94F82010DBF8002032
:1050900022F07C5242EA0161CBF8001024E000BF0C
:1050A000FEF730FAA0EB0A00022898D82868C0055D
:1050B000F6D5FEF721FA4045E6D8DAE7306820F069
:1050C000F84040F08040DCE720F080002860FEF7E8
:1050D00019FA064605E000BFFEF714FA801B022805
:1050E0009DD82868C005F7D42078000729D56C48DA
:1050F0006169643000298046016811D041F00101E6
:105100000160FEF7FFF9064605E000BFFEF7FAF979
:10511000801B0228C9D8D8F800008007F6D510E017
:1051200021F001010160FEF7EDF9064605E000BF40
:10513000FEF7E8F9801B022872D8D8F80000800733
:10514000F6D42078800623D5A0690028286810D0DE
:1051500040F480502860FEF7D5F9064605E036E1B8
:10516000FEF7D0F9801B02285AD828688004F7D5AA
:105170000EE020F480502860FEF7C4F9064604E0F3
:10518000FEF7C0F9801B02284AD828688004F7D4AB
:10519000207840074FD5DFF80C81D8F8001041F493
:1051A0008071C8F80010FEF7ADF9064605E000BFB3
:1051B000FEF7A8F9801B642832D8D8F80000C00593
:1051C000F6D5374EA068603601280AD008B1052808
:1051D00013D0306820F001003060306820F0040007
:1051E00002E0306840F001003060A06841F2883A87
:1051F00090B1FEF787F980460AE0306840F004007D
:105200003060EEE7FEF77EF9A0EB0801514507D8C4
:1052100030688007F6D50EE0FEF774F9804607E0A7
:1052200084E000BFFEF76EF9A0EB080151457DD880
:1052300030688007F6D4606AB0B3DFF86480D9F8CC
:10524000001008F120084FF6F87B08F10409C1F3BB
:10525000C2010329A8F1040A69D00228286820F0B5
:105260008070286003D0FEF74DF9044684E0FEF715
:1052700049F9064605E000BFFEF744F9801B022805
:1052800077D828688001F7D4E26A40F2F3313868B1
:1052900054F8283F884340EA02101843386004E07D
:1052A0001044025800480258B5E0217B4346228949
:1052B0004FF4FE0C208A4FF0FE474902267D521E15
:1052C000401EA1F50071C2F308088AB2761E0CEAEE
:1052D000004042EA08020243504607EA06610A43D8
:1052E0001A60DAF8002022F00102CAF80020D9F88A
:1052F0000020266A22EA0B0242EAC602C9F8002010
:10530000DAF80010A26921F00C011143CAF800106C
:105310000168E26921F0020111430160016841F472
:1053200080310160016841F4003101E021E027E0B3
:105330000160016841F480210160016841F00101D0
:105340000160286840F080702860FEF7DBF80446B2
:1053500005E000BFFEF7D6F8001B022809D8286830
:105360008001F7D557E000BFFEF7CCF8001B0228FC
:1053700002D90320BDE8F09F28688001F4D44AE0F8
:1053800039680128D8F8000021D0A26A01F003038F
:1053900093421CD1E26AC1F305118A4217D1216BF5
:1053A000C0F30802491E8A4211D1616BC0F3462244
:1053B000491E91420BD1A16BC0F30642491E914296
:1053C00005D1E16BC0F30660491E814201D0012086
:1053D000D0E7A16C4E46D9F80000C0F3CC00814262
:1053E00019D0DAF80000554620F00100CAF8000094
:1053F000FEF788F84FEA0007FEF784F8B842FBD0C2
:10540000A26C306820EA0B0040EAC20030602868D5
:1054100040F0010028600020ACE7000070B50400F7
:105420000D4603D094F82C0010B107E0012070BDA8
:10543000002084F82D00204600F018F8022084F89F
:105440002C002068211DFCF713FFD4E90002294637
:10545000FCF760FF04480121026842F0004202604C
:1054600084F82C10002070BD00400052704710B529
:10547000044690F82C00022804D094F82C0001284F
:1054800001D0012010BD022084F82C002068FCF718
:1054900024FF012084F82C00002010BD70B50446C4
:1054A00090F82C000D46022804D0012803D00528CE
:1054B00001D0012070BD022084F82C002068FCF788
:1054C00015FF2868022805D05FF0010084F82C0041
:1054D000002070BD0520F9E7401EB0F1807F10B5B7
:1054E00001D3012010BD4FF0E02460610F2160174F
:1054F00003F092FC0020A0610721216110BD30B5AE
:1055000090F88410012918D0012280F884202421E9
:10551000C0F888100022202401680B680D6823F071
:10552000005325F001050D60426601680B60C0F86C
:10553000884080F88420104630BD022030BD70477E
:10554000704770B5044690F8840001281DD00122F0
:1055500084F884202420C4F8880020680568026844
:1055600022F0010202602068826822F060620A4331
:105570008260204602F0F2FF2268202100201560A0
:10558000C4F8881084F8840070BD022070BD70B526
:10559000044690F8840001281DD0012284F884205C
:1055A0002420C4F8880020680568026822F00102FF
:1055B00002602068826822F060420A4382602046CE
:1055C00002F0CCFF2268202100201560C4F888106A
:1055D00084F8840070BD022070BD7047704770472A
:1055E0002DE9F04107680025044640F60F03022626
:1055F000F8693968BA6818420AD183067ED501F085
:10560000200302F0805C53EA0C0377D0616F7EE1E7
:10561000D44BDFF854C3134001EA0C0C53EA0C0CD2
:105620006CD05FEAC07C0CD05FEAC15C09D54FF05A
:10563000010CC7F820C0D4F8907047F00107C4F8F7
:105640009070870709D5D70707D027683E62D4F83E
:10565000906046F00406C4F8906046070AD5D60765
:1056600008D0276804263E62D4F8906046F002060F
:10567000C4F8906006070CD501F020061E4308D040
:10568000266808233362D4F8903043F00803C4F846
:10569000903003050BD54B0109D526684FF4006304
:1056A0003362D4F8903043F02003C4F89030D4F83B
:1056B0009030002B3DD0800609D501F0200002F08B
:1056C0008051084303D0616F09B1204688472168A3
:1056D000D4F890008968490602D410F0280F2AD027
:1056E000204603F01BF82068806840061ED520681D
:1056F000083050E8001F21F0400100E021E040E8C0
:105700000012002AF3D1D4F8800078B197490165DE
:10571000D4F88000FDF750F900280AD0D4F88000B2
:10572000016D00E02046BDE8F04108472046FFF744
:1057300056FFBDE8F0812046FFF751FFC4F89050B6
:10574000F7E7D4F86CC02023BCF1010F7ED15FEAEB
:10575000C06C7BD55FEAC16C78D5102038622068B8
:105760008068400673D5D4F880208149106888424B
:1057700034D07F491831884230D07D493031884259
:105780002CD07B494831884228D079496031884201
:1057900024D077497831884220D0754990318842A9
:1057A0001CD07349A831884218D07249884215D05C
:1057B00070491831884211D06E49303188420DD07D
:1057C0006C494831884209D06A496031884205D025
:1057D00068497831884201D06649903140684FF479
:1057E00080770004000C40D0B4F85C1081423CD9B2
:1057F000A4F85E00D069B8422FD0216851E8000FAC
:1058000020F4807041E80002002AF6D120680830B8
:1058100050E8001F21F0010140E80012002AF5D1F4
:105820002068083050E8001F21F0400140E80012D5
:10583000002AF5D1C4F88C30E566206850E8001FD6
:1058400021F0100140E80012002A01E04AE019E0CE
:10585000F3D1D4F88000FCF7FFFE2667B4F85C00B3
:10586000B4F85E10401A81B208E0B4F85C108142CE
:105870007FF466AFD069B842FAD126672046FFF7B9
:105880005EFE56E7B4F85C00B4F85E10B4F85E2033
:10589000401A81B2002AF4D00029F2D0226852E8DE
:1058A000000F20F4907042E80007002FF6D1324F2D
:1058B000206800F1080050E8002F02EA070240E8E3
:1058C000002CBCF1000FF3D1C4F88C30E56665679D
:1058D000226852E8000F20F0100042E80003002B7D
:1058E000F6D1CAE7C60209D5560207D54FF4801093
:1058F00038622046BDE8F041FFF770BE06060AD5C3
:1059000001F0800602F40002164304D0A16F0029C2
:105910007FF408AF0DE7420611D54A060FD52046A1
:10592000016851E8002F22F0400241E80024002CD9
:10593000F6D1C0F88830856700F03CF9F9E602023C
:1059400006D54A0004D52046BDE8F041FFF745BE24
:10595000C00196D5002994DA2046BDE8F041FFF752
:10596000EFBD0000010000102001000413870008B3
:105970001000024010040240FEFFFFEF10B50400CB
:1059800003D0D4F8880010B107E0012010BD00203A
:1059900084F88400204600F027F82420C4F888000A
:1059A0002068016821F001010160A06A10B1204661
:1059B00002F0F6FD204602F0DBFE0128E6D020686A
:1059C000416821F4904141602068816821F02A01FA
:1059D00081602068016841F0010101602046BDE856
:1059E000104002F041BE00002DE9F041B8B004467D
:1059F000142132A8FAF738FFC8216846FAF734FFB5
:105A00003A49022620680127374D002488424FF486
:105A1000007835D1002020940121CDE9001068469E
:105A2000FEF7F0FA08B1FCF713FC2F4810300168BC
:105A300041F010010160006800F010003790286804
:105A400040F001002860286832A9072500F0010015
:105A500037904FF4806081E8C100254FCDE935458E
:105A60003846FDF721FCCDF8C88032A9CDE9336472
:105A7000CDE935453846FDF717FC38B0BDE8F08173
:105A80001C498842F9D118480830016841F00041AA
:105A90000160006800F000403790286840F4007012
:105AA00028602868082532A900F400703790680142
:105AB00081E8C100104FCDE935453846FDF7F4FBCC
:105AC000CDF8C88032A9CDE93364CDE935453846F3
:105AD000FDF7EAFB002205215320FDF7D7FE5320F6
