:020000040810E2
:10000000D806001039031008A3221008F5211008A3
:10001000A122100851051008F52410080000000066
:10002000000000000000000000000000D1241008C3
:100030005305100800000000A5221008D324100862
:1000400057031008570310085703100857031008E8
:1000500057031008570310085703100857031008D8
:1000600057031008570310085703100857031008C8
:1000700057031008570310085703100857031008B8
:1000800057031008570310085703100857031008A8
:100090005703100857031008570310085703100898
:1000A0005703100857031008570310085703100888
:1000B0005703100857031008570310085703100878
:1000C0005703100857031008570310085703100868
:1000D0005703100857031008570310085703100858
:1000E00057031008570310080000000057031008BA
:1000F0005703100857031008570310085703100838
:100100005703100857031008570310085703100827
:100110005703100857031008570310085703100817
:100120005703100857031008570310085703100807
:1001300057031008570310085703100857031008F7
:1001400057031008570310080000000000000000CB
:1001500057031008570310085703100857031008D7
:1001600057031008570310085703100857031008C7
:100170005703100857031008570310080000000029
:1001800057031008570310085703100857031008A7
:100190005703100857031008570310085703100897
:1001A0005703100857031008570310085703100887
:1001B0005703100857031008570310085703100877
:1001C0005703100857031008570310085703100867
:1001D0005703100857031008570310085703100857
:1001E0005703100857031008570310085703100847
:1001F0005703100857031008570310085703100837
:100200005703100857031008570310085703100826
:100210005703100857031008570310085703100816
:100220005703100857031008570310085703100806
:1002300057031008570310085703100857031008F6
:1002400057031008570310085703100857031008E6
:1002500057031008570310085703100857031008D6
:1002600057031008570310085703100857031008C6
:1002700057031008570310085703100857031008B6
:100280005703100857031008570310080000000018
:10029000570310085703100800F002F800F03CF86C
:1002A0000AA090E8000C82448344AAF10107DA45D1
:1002B00001D100F031F8AFF2090EBAE80F0013F0E7
:1002C000010F18BFFB1A43F001031847D4220000A6
:1002D000F4220000103A24BF78C878C1FAD8520737
:1002E00024BF30C830C144BF04680C6070470000B0
:1002F0000023002400250026103A28BF78C1FBD82F
:10030000520728BF30C148BF0B6070471FB502F0CD
:1003100039F91FBD10B510BD00F05CF81146FFF7AC
:10032000F5FF02F0F9F800F07AF803B4FFF7F2FFF6
:1003300003BC00F081F800000A4880470A48804763
:100340000A480047FEE7FEE7FEE7FEE7FEE7FEE7B6
:10035000FEE7FEE7FEE7FEE705480649064A074BCB
:100360007047000059051008D92410089902100898
:10037000D8000010D8060010D8020010D8020010D3
:100380004FF0000200B5134694469646203922BF2E
:10039000A0E80C50A0E80C50B1F12001BFF4F7AF79
:1003A000090728BFA0E80C5048BF0CC05DF804EB5B
:1003B000890028BF40F8042B08BF704748BF20F8C9
:1003C000022B11F0804F18BF00F8012B70477047C7
:1003D00070477047754600F02BF8AE460500694639
:1003E000534620F00700854618B020B5FFF7B4FF4C
:1003F000BDE820404FF000064FF000074FF0000826
:100400004FF0000B21F00701AC46ACE8C009ACE8A6
:10041000C009ACE8C009ACE8C0098D46704710B50A
:100420000446AFF300802046BDE81040FFF77DBFD3
:10043000004870477800001001491820ABBEFEE765
:10044000260002007047000070B505460068394973
:10045000884202D0384A904202D1D1F8080302E023
:100460003648D0F8080310F4403F11D001F0DCFD0D
:1004700004466868B0F5803F06D0B0F5003F03D071
:10048000B0F5403F27D101E0000C18E0A40822E0BD
:100490004FF40020002100F071FF044668688103DA
:1004A000890B18D181140C2915D2DFE801F014064C
:1004B00006060606060B0D0F1113800C4000B4FB58
:1004C000F0F408E0240906E0640904E0A40902E06D
:1004D000E40900E0240A00F051FC41F203018842E3
:1004E00008D8174884422868816813D821F480719D
:1004F000816070BD13496008884204D8286881680B
:1005000021F44071F4E71049884206D828688168D0
:1005100021F4407141F48071EAE70C49884228686F
:10052000816804D821F4407141F40071E0E741F49E
:100530004071DDE7002002400021024000600258C7
:10054000002D3101105E5F0020BCBE0040787D01AF
:10055000FEE7704772B6FEE70548016821F0020128
:1005600001600348083801688904FCD57047000021
:100570000C4802582DE9F047044690F850009AB014
:100580000F464FF00009012815D0012084F85000D3
:10059000002615961696DFF8F080216841450ED1A9
:1005A0003A4D0095284601F02EFE8246206801F063
:1005B0002AFE60B10EE002201AB0BDE8F087606D3F
:1005C00040F02000606584F850600120F4E7BAF143
:1005D000000F09D0606D40F0200060654FF0010908
:1005E00084F850604846E7E720684146884201D0D9
:1005F000A84201D1264800E02648D7F800C0264B83
:1006000040F61F72BCF1000F23D0D0F808C0D7F815
:1006100004802CF4404C4CEA080CC0F808C0D4F814
:1006200000C08C4501D0AC4507D18968AB6801F0AA
:10063000010103F00103194302E0996801F001018F
:100640000029CDD1BB6839681943836893431943A6
:1006500017E0876827F44047876027688F4201D0FA
:10066000AF4207D18968AB6801F0010103F00103D3
:10067000194302E0996801F001010029B0D18168B5
:1006800091438160ACE7000000200240002102405D
:100690000023024000630258006002582DE9F84F21
:1006A000044600270D46009794F850100068DFF8C4
:1006B00094A3DFF89483E54E012907D04FF0010998
:1006C00084F8509001F09BFD18B16EE10220BDE866
:1006D000F88F286800280DDB2168CA69030329D038
:1006E00090FAA0F0B0FA80F000F01F0309FA03F0CE
:1006F0000243CA61D5E900210C23206803EA911363
:100700001844036B01F01F014FF01F0C0CFA01FCA1
:10071000C2F3846223EA0C038A4013430363206814
:1007200001F06DFD8346206801F065FD5BEA000085
:1007300003D08DE0C0F38460D6E72A6820680423E4
:1007400003EAD2531844A9684369C2F304524FF034
:10075000070C0CFA02FC23EA0C0391400B434361A3
:10076000BB480168B9EB117F06D168692168C96887
:10077000C1F38201490008E02168C868C0066869C1
:10078000F5D5C96801F01001490888402969042994
:100790002ED023682A6803EB81010B6E02F0F84229
:1007A00003F00043024313430B66697E20682A6905
:1007B000012917D05FF0000100EB8200026E22F0E9
:1007C00000420A430266297E20682A6901290CD06A
:1007D0000021036902F01F0223F4F04391400B4310
:1007E000036135E04FF00041E6E74FF40061F0E7C8
:1007F0002068016E2A7801F0F841B1EB826F03D1D5
:10080000016E21F0004101662068416E2A7801F0F6
:10081000F841B1EB826F03D1416E21F00041416696
:100820002068816E2A7801F0F841B1EB826F03D124
:10083000816E21F0004181662068C16E2A7801F046
:10084000F841B1EB826F03D1C16E21F00041C16666
:100850002068816811F0010F6FD12A7B296850F858
:10086000C03FC1F3130C23EA0C0302F0180C794AC1
:1008700022FA0CF20A4013430360E96841456BD148
:10088000754ADFF8D8C12368DFF8D4E175487649A6
:10089000DFF8D8B14FEA4C08934223D12A68624569
:1008A00025D0424527D0A2F1496CBCF1080C34D0C8
:1008B000A2F1865CBCF1100C31D0DFF8B4C1624506
:1008C00029D0DFF8B0C1624539D082422FD08A42A8
:1008D00031D06948824201D1684830E05A452DD173
:1008E00067482CE0B34229D12A68624501D1012032
:1008F00025E0424501D1704621E0A2F1496CBCF1EE
:10090000080C0AD0A2F1865CBCF1100C07D0DFF80D
:1009100060C1624505D15B4811E05B480FE05B4870
:100920000DE0DFF850C1624509D0824201D108468E
:1009300005E08A42D2D1564801E03BE00020D96967
:10094000020319D090FAA0F0B0FA80F000F01F0274
:1009500009FA02F00143D961D5F800C0BCF1000FDB
:1009600028DA3D4B20684B49DFF82C91984201D0A2
:10097000B04203D10A4602E0800EE7E74A46926899
:10098000984202F0E07201D0B04209D19D68D6F8D9
:10099000088005F0010508F0010845EA080503E0B4
:1009A000DAF8085005F001054DB1606D40F0200007
:1009B00060650127002084F85000384687E6374DEF
:1009C000AC451CD115021AD45045F3D1984202D03F
:1009D000B04200D0494642F400008A6822F0E0723A
:1009E00002438A602E482F490068B0FBF1F04000B6
:1009F000801C00E0401E00900028FBD1DAE72A4D61
:100A0000AC450BD1D50109D45045D3D1984202D081
:100A1000B04200D0494642F080700DE0234DAC4515
:100A2000C8D15502C6D45045C4D1984202D0B04274
:100A300000D0494642F480008A6822F0E072024306
:100A40008A60B7E7006002580000FF4700210240BB
:100A50000010005CFFFF0F00002002400200300485
:100A6000400020190008302E001060320000844B36
:100A70002000F0140004002A000021430000524727
:100A80000000B84F0002B0258000501D00018021F9
:100A9000002090360023024000630258000084CBFF
:100AA0000C000010400D0300000052C70000B8CF3A
:100AB000F8B54FF0000504002E46009502D0606D99
:100AC00010B107E00120F8BD204600F003F9A6654B
:100AD00084F8506020688168C1F3407119B1816861
:100AE0006F4A1140816020688168C1F3007181B94B
:100AF00081686C4A114041F0805181606A486B49BD
:100B00000068B0FBF1F0401C00E0401E009000289F
:100B1000FBD120688168C1F3007141B9616D41F07A
:100B200010016165A16D41F00101A165012501F090
:100B300066FB616DC90600D430B1606D40F01000F5
:100B4000606501252846F8BD606D20F4807040F096
:100B5000020060652068816811F0010F1FD1544ABE
:100B6000544B904201D0984207D191689E6801F0A1
:100B7000010106F00106314303E04F49896801F0A5
:100B8000010161B9904201D0984201D14B4800E087
:100B90004B486168826822F47C120A43826000F04C
:100BA000EDF841F20301884202D9A06810280CD068
:100BB000A168206B227F0843617D490341EA02411D
:100BC0000843D1B201290CD010E0617D206B227F57
:100BD000490340F0100041EA0241084340F00C0094
:100BE000EFE7218C374A02EB41410843616A29B1A2
:100BF00001F47871A26A014342EA01002168CA68DF
:100C0000314B1A400243CA60206801F0F8FA0646E8
:100C1000206801F0F0FA30431DD1217DE06A40EAFE
:100C200081322068C16844F2030399431143C160D3
:100C300094F83800012816D02068016921F00101DC
:100C4000016120680169626B21F07041114301610B
:100C50002046FFF7F9FBE06801282068016B21F0CE
:100C60000F0111D013E0D4E910010843A28F174BF4
:100C7000A16C03EB02421143084321680A69144B3B
:100C80001A4010430861DCE7A269521E1143016358
:100C9000606D20F0020040F00100606552E7000046
:100CA000C0FFFF5FC0FFFF7F0C000010400D03007E
:100CB0000020024000210240006002580023024050
:100CC000006302580000FEFF03C0F0FF0100FFFFB9
:100CD0001EF800FC10B5B4B00446C8216846FFF702
:100CE0004FFB1E492068884236D14FF40020002176
:100CF000CDE9000105200A9020200B9002200C90E5
:100D00000D900E9080020F908010CDE91001C0016F
:100D10002A90684600F096FC08B1FFF71BFC1048CB
:100D2000016841F020010160006800F0200032906D
:100D30000B480830016841F001010160006800F0D3
:100D4000010032904FF08070014601F037FA4FF009
:100D50000070014601F032FA34B010BD00200240AC
:100D6000D844025804480068C0F30310072801D093
:100D7000012070470320704700ED00E00148006843
:100D8000000C70470010005C01488068704700004C
:100D90000000001002490A6802430A607047000020
:100DA00010650258024881680278114481607047DA
:100DB000000000101C4808B5016841F48041016042
:100DC000006800F48040009018480168184A1140FB
:100DD00041F401410160016841F00101016003201B
:100DE00000F07CF801F052F90F49C0390A6809682F
:100DF000C2F303230F4AD35C03F01F03D84001F072
:100E00000F01515C01F01F01C8400B4908600B49FC
:100E10000860002000F014F808B1012008BD00F0BF
:100E20002FF8002008BD0000D844025800440240BA
:100E3000FF00F0FF8E251008100000100C000010BD
:100E400070B50D4D04462878A0B14FF47A71B1FB0E
:100E5000F0F00A490968B1FBF0F001F0B7F948B9C0
:100E6000102C07D200222146501E00F017F8002057
:100E70006C6070BD012070BD000000100C000010FF
:100E8000054808B5016841F002010160006800F002
:100E90000200009008BD0000F4440258F0B40E4B6C
:100EA0001B680C46C3F30223C3F10705042D00D9C8
:100EB0000425191D072901D2002300E0DB1E0126AD
:100EC00006FA05F1491E214099409E40761E1640C3
:100ED0003143F0BC01F00FBB0CED00E0064900F01F
:100EE000070208684FF6FF03184040EA0220034A51
:100EF00010430860704700000CED00E00000FA05A8
:100F000010B5FFF72FFF032800D040BF20BF10BD52
:100F10002DE9F0410F4620490B6823F001030343FC
:100F20000B601D4D1D4C103562B12E1D012A17D0CE
:100F3000FFF718FF032829D0306820F00400306044
:100F4000BDE8F081FFF70EFF0328F9D1286820F0F3
:100F5000010028600CE0206820F004002060EFE72A
:100F6000FFF700FF0128EBD1306820F0020030606D
:100F7000206840F004002060BFF34F8FBFF36F8FF5
:100F8000012F01D020BFE6E730BFE4E7286820F05A
:100F900004002860D4E700000048025810ED00E08B
:100FA00010B501F041F805490968054AC1F302117D
:100FB000515C01F01F01C84010BD000020440258E0
:100FC0008E251008494910B50A68096802F0030324
:100FD000464AC1F30511121D1268444C02F0010289
:100FE0000C342468C4F3CC0414FB02F200EE102A83
:100FF000F8EE400AF1B33D4A9FED3D1ADFED3D1A90
:101000000832B7EE000A23B1012B52D0022B60D177
:1010100056E0364B283B1C68A4065AD51B68C3F320
:10102000C104354BE34001EE903AF8EE612A01EE3F
:10103000901AF8EE611A49E01168C1F3080101EE57
:10104000901A1168F8EE611A40EE811A71EE800A6A
:1010500062EE200AC1F3462101EE101AB8EE411AE1
:1010600031EE001AC0EE811ABCEEE11A80ED001AD2
:10107000116800E034E0C1F3064101EE101AB8EE49
:10108000411A31EE001AC0EE811ABCEEE11A80ED71
:10109000011A1168C1F3066101EE101AB8EE411A87
:1010A00031EE000A80EE801ABCEEC10A80ED020A21
:1010B00010BD01EE901ADFED112AF8EE611A05E07D
:1010C00001EE901ADFED0E2AF8EE611A82EEA12AE7
:1010D000B2E702EE101AF8EE422A81EEA22AABE73E
:1010E000002101604160816010BD00002844025869
:1010F000000000390024744C0090D0030024744A8E
:1011000020BCBE4B484910B50A68096802F00303C9
:10111000454AC1F30531121D1268434CC2F3001257
:1011200014342468C4F3CC0414FB02F200EE102A39
:10113000F8EE400AE9B33C4A9FED3C1A1032B7EE94
:10114000000A63B1DFED3A1A012B01D0022B5ED009
:1011500002EE101AF8EE422A81EEA22A1AE0324B71
:10116000283B1C68A4060DD51B68C3F3C104314B92
:10117000E34001EE903AF8EE612A01EE901AF8EEA3
:10118000611A05E001EE901ADFED2B2AF8EE611AE4
:1011900082EEA12A1168C1F3080101EE901A1168CC
:1011A000F8EE611A40EE811A71EE800A62EE200AB2
:1011B00000E033E0C1F3462101EE101AB8EE411A07
:1011C00031EE001AC0EE811ABCEEE11A80ED001A71
:1011D0001168C1F3064101EE101AB8EE411A31EE62
:1011E000001AC0EE811ABCEEE11A80ED011A1168F6
:1011F000C1F3066101EE101AB8EE411A31EE000A91
:1012000080EE801ABCEEC10A80ED020A10BD01EE2C
:10121000901ADFED0A2AF8EE611AB9E700210160A1
:101220004160816010BD0000284402580000003970
:101230000024744A0090D0030024744C20BCBE4BA0
:10124000484910B50A68096802F00303454AC1F32A
:101250000551121D1268434CC2F300221C3424684D
:10126000C4F3CC0414FB02F200EE102AF8EE400A9C
:10127000E9B33C4A9FED3C1A1832B7EE000A63B15D
:10128000DFED3A1A012B01D0022B5ED002EE101ACC
:10129000F8EE422A81EEA22A1AE0324B283B1C6863
:1012A000A4060DD51B68C3F3C104314BE34001EE26
:1012B000903AF8EE612A01EE901AF8EE611A05E014
:1012C00001EE901ADFED2B2AF8EE611A82EEA12AC8
:1012D0001168C1F3080101EE901A1168F8EE611A65
:1012E00040EE811A71EE800A62EE200A00E033E0DF
:1012F000C1F3462101EE101AB8EE411A31EE001A80
:10130000C0EE811ABCEEE11A80ED001A1168C1F33B
:10131000064101EE101AB8EE411A31EE001AC0EE85
:10132000811ABCEEE11A80ED011A1168C1F3066161
:1013300001EE101AB8EE411A31EE000A80EE801A62
:10134000BCEEC10A80ED020A10BD01EE901ADFED7D
:101350000A2AF8EE611AB9E7002101604160816054
:1013600010BD000028440258000000390024744ACF
:101370000090D0030024744C20BCBE4B2DE9F04FEC
:10138000AD4A0546AB4CDFF8ACA21311AB48DFF811
:10139000B092503C85F4807789B0AAF104064FF0F2
:1013A000805C4FF000580F432CD085F400770F433A
:1013B00057D0DFF880B285F480670BF1080B0F433C
:1013C00061D085F400670F4374D085F480570F43D4
:1013D0006ED085F400574FF480394FF4003E0F4330
:1013E00067D085F400270F4371D085F480370F4311
:1013F0006ED085F480460E436BD085F400420A43DC
:1014000068D02AE0DAF8001001F00701052924D29B
:10141000DFE801F075BC7D25B10006A8FFF7D2FD1D
:10142000079809B0BDE8F08F6846FFF76BFE00989B
:10143000F7E703A8FFF704FF0398F2E72068C0F37B
:10144000C10022FA00F0ECE72268D20571D56145AF
:101450006FD11846E5E74145E3D00020E1E7484673
:10146000DFE7DAF8001001F4E07180294FD004DCE6
:10147000002944D04029F0D188E0C029EFD0B1F54F
:10148000807FEAD177E0DBF8001001F46001B1F56C
:10149000800F3CD004DC91B3B1F5001FDDD175E0C5
:1014A000B1F5C00FDBD0B1F5000FD6D163E001E09C
:1014B00018E030E0DBF8001001F0E061B1F1007FEE
:1014C00025D008DCD9B1B1F1807FC6D15EE049E01A
:1014D0006CE079E09CE0B1F1407FC0D0B1F1806F69
:1014E000BBD148E0DAF8001001F4E041B1F5005F4B
:1014F0000DD005DC19B1B1F5805FAED146E094E0C6
:10150000B1F5405FABD0B1F5804FA6D133E0206894
:101510008000A2D58DE7DAF8001001F4E021B1F5E2
:10152000403F6CD006DC61B149457AD0714594D119
:1015300057E037E0B1F5802F65D0B1F5A02F8CD101
:101540000CE000F091FD6CE76846FFF7DBFD0198C9
:1015500067E703A8FFF774FE049862E72168890330
:10156000F1D47AE7DBF8001011F440310ED0494590
:1015700010D07145F5D13168256801F040516D07F3
:101580007FF562AF00297FF45FAF57E72068000165
:10159000E7D549E720688000E3D503A8FFF750FEB0
:1015A00005983EE722689203DBD554E7306810F4D3
:1015B00080303AD04845D4D120680001D1D5684662
:1015C000FFF7A0FD02982CE7DBF8001001F0E041E6
:1015D000B1F1405F13D008DC71B1614521D04145C4
:1015E000BFD120688000B4D437E7B1F1804F0AD072
:1015F000B1F1A04FB2D030E7FFF7D2FC11E720687D
:101600004007AED51AE72068C005AAD521E708E053
:10161000DAF8001011F04051A0D0614505D04145E5
:101620009FD1206800018FD417E72068800198D5EA
:10163000F3E60000504402580090D00340787D014A
:101640000080BB002DE9FE4F054600680024C04322
:10165000010105F108000090F64FDFF8DC8305F189
:101660002800264601901DD4E86E50B1B0F5801FC9
:101670000CD0B0F5001F0ED0B0F5401F1ED00124D5
:101680000FE0386840F40030386017E0022100981D
:1016900000F00AFE03E00221019800F08FFE040032
:1016A0000CD026462888C043C00523D4E86D052801
:1016B0001ED2DFE800F00C11161B1B00D8F800103A
:1016C000EA6E21F440111143C8F80010EAE73868C7
:1016D00040F40030386009E00021009800F0E4FD9B
:1016E00003E00021019800F069FE044674B100E0B7
:1016F000012426462888C043800528D4286E8028E7
:101700001ED00CDC90B140280ED114E0D8F80010A7
:10171000EA6D21F007011143C8F80010EAE7C0287C
:1017200013D0B0F5807F10D001240FE0386840F46A
:101730000030386009E00021009800F0B5FD03E0BA
:101740000021019800F03AFE04468CB12646288814
:10175000DFF8E892C04340052CD4D5F8AC00B0F5D2
:10176000800F20D00DDCA0B1B0F5001F0FD115E027
:10177000D8F800102A6E21F4E0711143C8F8001067
:10178000E5E7B0F5C00F13D0B0F5000F10D001247D
:101790000FE0386840F40030386009E0002100981C
:1017A00000F082FD03E00021019800F007FE0446EE
:1017B0007CB126462888C04300052DD4D5F8B0005A
:1017C000B0F1007F21D00EDCA8B1B0F1807F10D144
:1017D00016E0D9F80010D5F8AC2021F460011143CF
:1017E000C9F80010E6E7B0F1407F13D0B0F1806F88
:1017F00010D001240FE0386840F40030386009E070
:101800000021009800F050FD03E00021019800F055
:10181000D5FD044684B126462868DFF824B2C043CB
:1018200080011FD4E86CD8B110280FD0202812D026
:10183000302815D0012414E0D9F80010D5F8B020D4
:1018400021F0E0611143C9F80010E5E7386840F481
:101850000030386004E00221009800F025FD0446C5
:1018600074B126462888C043C0042BD4686EB0F5F6
:10187000005F20D00DDCA0B1B0F5805F0FD115E086
:10188000DBF80010EA6C21F030011143CBF80010B6
:10189000E8E7B0F5405F13D0B0F5804F10D00124D9
:1018A0000FE0386840F40030386009E0002100980B
:1018B00000F0FAFC03E00021019800F07FFD0446EF
:1018C0008CB126462888C043800429D4A86EB0F580
:1018D000403F23D010DC08B3B0F5803F14D0B0F502
:1018E000003F0FD115E0D8F800106A6E21F4E041F6
:1018F0001143C8F80010E5E7B0F5802F0ED0B0F521
:10190000A02F0BD001240AE00121009800F0CCFCAC
:1019100003E00121019800F051FD044694B12646F0
:101920002888C04340042AD4D5F8B400B0F1405F01
:1019300023D010DC08B3B0F1805F14D0B0F1005FA9
:101940000FD115E0D8F80010AA6E21F4E021114360
:10195000C8F80010E4E7B0F1804F0ED0B0F1A04F0E
:101960000BD001240AE00121009800F09DFC03E067
:101970000121019800F022FD04465CB1264628684A
:10198000C043400117D4286D98B1B0F5807F0BD0CB
:1019900001240FE0D9F80010D5F8B42021F0E0417F
:1019A0001143C9F80010EAE70121009800F07CFC1F
:1019B000044674B126462888C04300041ED4686FCC
:1019C000D0B1B0F1805F0DD0B0F1005F0FD0012435
:1019D00013E0DBF800102A6D21F480711143CBF87D
:1019E0000010E8E7386840F40030386004E0012176
:1019F000009800F059FC044674B126462868C0439C
:101A0000C00126D4A86C10B301280ED0022819D02A
:101A100003281CD001241BE0D8F800106A6F21F0C5
:101A200040511143C8F80010E8E7386840F400302E
:101A300038600CE02C440258504402585844025874
:101A40004C4402580221009800F02EFC04466CB170
:101A500026462868C04340024ED4FA48016841F443
:101A600080710160FFF790F982460FE0DBF800100B
:101A7000AA6C21F003011143CBF80010E9E700BF85
:101A8000FFF782F9A0EB0A00642833D8ED4800681C
:101A9000C005F5D57CBBDFF8B0A3DAF80000B5F8D7
:101AA000B81000F4407001F44071884211D0DAF8A7
:101AB0000010DAF8002021F4407142F48032CAF8B4
:101AC0000020DAF8002022F48032CAF80020CAF898
:101AD0000010D5F8B800B0F5807F18D1FFF754F9A1
:101AE000029010E0FFF750F90299411A41F2883054
:101AF000814208D9032426462878DFF850A3C04342
:101B0000C00722D03EE0DAF800008007EAD5D5F819
:101B1000B810C1F301200328CD480DD0016821F48D
:101B20007C510160DAF80010B5F8B820C2F30B025E
:101B30001143CAF80010DFE70268C64B22F47C525A
:101B400003EA11110A430260ECE7D5F88000182877
:101B500016D005DCA0B1082808D0102804D10AE06E
:101B600020280DD028280BD001240AE0012100985C
:101B700000F09AFB03E00121019800F01FFC0446ED
:101B800064B126462878C04380071FD4E86F062832
:101B90001AD2DFE800F0170D12171717DAF8001045
:101BA000D5F8802021F038011143CAF80010E9E788
:101BB0000121009800F078FB03E00121019800F07A
:101BC000FDFB04467CB100E0012426462878C04392
:101BD00040071FD4D5F89800062819D2DFE800F096
:101BE000160C11161616DAF80010EA6F21F007012C
:101BF0001143CAF80010E9E70121009800F054FBF6
:101C000003E00121019800F0D9FB0446A4B100E0F3
:101C1000012426462878C04380062BD4D5F89400AA
:101C2000B0F1405F24D011DC10B3B0F1805F15D06B
:101C3000B0F1005F10D116E0D9F80010D5F8982067
:101C400021F007011143C9F80010E3E7B0F1804F1C
:101C50000ED0B0F1A04F0BD001240AE00021009873
:101C600000F022FB03E00221019800F0A7FB0446EC
:101C700094B126462878C04340062BD4D5F8A0005E
:101C8000B0F5406F24D011DC10B3B0F5806F15D0E3
:101C9000B0F5006F10D116E0DAF80010D5F89420F6
:101CA00021F0E0411143CAF80010E3E7B0F5805F8E
:101CB0000ED0B0F5A05F0BD001240AE000210098FF
:101CC00000F0F2FA03E00221019800F077FB0446ED
:101CD00094B126462878C04300062BD4D5F8A4003A
:101CE000B0F5C04F24D011DC10B3B0F5005F15D0B3
:101CF000B0F5804F10D116E0D9F80010D5F8A0202B
:101D000021F4E0511143C9F80010E3E7B0F5004FAA
:101D10000ED0B0F5204F0BD001240AE0002100982E
:101D200000F0C2FA03E00221019800F047FB0446EC
:101D300054B126462878C04300071ED4D5F8880041
:101D4000B0F5805F0AD00FE0D9F80010D5F8A420D4
:101D500021F460411143C9F80010EBE7022101981A
:101D600000F02CFB00B10126DAF80010D5F888202D
:101D700021F440511143CAF800102878C043C0062E
:101D800013D4D5F89C00B0F5807F05D102210198CD
:101D900000F014FB00B10126D9F80010D5F89C2002
:101DA00021F440711143C9F800102868C0430003B2
:101DB00016D4D5F8A80038B1B0F5803F09D0B0F5F9
:101DC000003F0BD001240AE00021009800F06CFADB
:101DD00003E00221019800F0F1FA04468CB1264696
:101DE0002868C043400322D4D5F88C00B0F5801F8A
:101DF00011D0B0F5001F13D0B0F5401F15D001244D
:101E000014E0D9F80010D5F8A82021F4403111438E
:101E1000C9F80010E4E7386840F40030386004E0A6
:101E20000121019800F0CAFA0446ACB126462868A0
:101E3000C043C00326D4686DC0B1B0F5803F1AD04E
:101E400001241EE0004802587044025854440258CD
:101E500010440258CFFFFF00DAF80010D5F88C20AC
:101E600021F440111143CAF80010E0E7386840F44B
:101E70000030386004E00221009800F015FA0446B2
:101E8000E4B126462868C043800005D402210198A9
:101E900000F094FA00B101262868C04380031CD4E6
:101EA000D5F88400B8B1B0F5807F10D0B0F5007FD0
:101EB00011D0B0F5407F0ED001240DE0DBF800100A
:101EC0006A6D21F480311143CBF80010DAE73868ED
:101ED00040F400303860E4B326462868C043C002AE
:101EE00007D4D8F80010AA6F21F000411143C8F8B8
:101EF00000102868C043C00007D44A480168D5F8DC
:101F0000BC2021F48041114301602868C043800255
:101F100007D4D8F800102A6F21F080711143C8F857
:101F200000102868C043400009D43E48016821F4ED
:101F3000004101600168D5F8C020114301602868A4
:101F4000C04309D4DBF80010AA6D21F040511143C1
:101F500000E016E0CBF800102868C043000208D467
:101F6000DAF80010D5F8902021F440011143CAF8A6
:101F7000001028790024C04300F0010020430AD05B
:101F80000FE0DAF80010D5F8842021F440711143F5
:101F9000CAF80010A1E70021009800F085F900B10F
:101FA00006462879C04300F00200204305D10121F4
:101FB000009800F079F900B106462879C04300F096
:101FC0000400204305D10221009800F06DF900B112
:101FD00006462879C04300F00800204305D10021BF
:101FE000019800F0EBF900B106462879C04300F0F3
:101FF0001000204305D10121019800F0DFF900B164
:1020000006462879C04300F02000044304D1022191
:10201000019800F0D3F900B916B10120BDE8FE8F98
:102020000020FBE71044025800B500F02FF80A49E1
:102030000A680968C2F30323084AD35C03F01F034C
:10204000D84001F00F01515C01F01F01C840044964
:1020500008600449086000BD184402588E25100825
:10206000100000100C00001000B5FFF7DDFF05495F
:102070000968054AC1F30211515C01F01F01C84013
:1020800000BD00001C4402588E25100830B543489E
:102090000068444B10F03802414808D00111082A6A
:1020A00003D0102A0BD0182A0BD0084630BD19686F
:1020B0008906FBD51968C1F3C101C84030BD3A4853
:1020C00030BD364918310A68096802F00304334A02
:1020D000C1F305111C321268304D02F001022435A3
:1020E0002D68C5F3CC0515FB02F200EE102AB8EE00
:1020F000400AE9B3294A9FED2D1AF7EE000A203273
:1021000064B1DFED2B1A012C01D0022C3CD002EE81
:10211000101AF8EE422A81EEA22A17E01C68A406E3
:102120000CD51B68C3F3C103D84001EE900AF8EE4A
:10213000612A01EE901AF8EE611A05E001EE901A9C
:10214000DFED1C2AF8EE611A82EEA12A1068C0F3B6
:10215000080001EE900A1068F8EE611A40EE011ACC
:1021600031EEA00A22EE000AC0F34620401C00E037
:1021700011E000EE900AF8EE600A80EE201ABCEE44
:10218000C10A10EE100A30BD01EE901ADFED0A2AE6
:10219000F8EE611AD8E7002030BD00001044025864
:1021A0000090D0030044025840787D0100000039BF
:1021B0000024744A0024744C20BCBE4B024A1368AD
:1021C00083430B43136070470404005810B5401E4E
:1021D000B0F1807F01D3012010BD4FF0E024606199
:1021E0000F21601700F087F90020A061072020610F
:1021F000002010BDFEE78068C0F3C0007047806813
:10220000C0F3800070478068C0F380007047000012
:1022100030B58BB00024079408941C2168460994BB
:10222000FEF7AEF81C481B490425C0E90014846081
:10223000C0E9034504754475012181610477446256
:102240008462C4620463446380F83840C163FEF76B
:102250002FFC08B172B6FEE707A90F480794FEF7F6
:1022600089F908B172B6FEE70C4800900620CDE966
:10227000010440F2FF70CDE9045403908DF8194039
:1022800069460548FEF70AFA002801D072B6FEE753
:102290000BB030BD002002401400001002003004DA
:1022A000FEE7FEE7704700002DE9F047DFF8088100
:1022B00005460E46D8F800004FF00009C0438007DD
:1022C00009D03D4C283C206820F080602060FEF75B
:1022D0005BFD074607E00120BDE8F087FEF754FDEF
:1022E000C01B022861D820680001F7D4D8F800107C
:1022F0002A6821F47C3141EA0231C8F80010287ABA
:10230000A9884002A0F50070491E80B2C1F30801FF
:102310000843A9894FF4FE02491E02EA014108431D
:10232000297C1202491E02EA016108432249103148
:102330000860214A121D1068696920F0C000084336
:1023400010601068A96920F0200008431060106830
:1023500020F0100010601848143001684FF6F87330
:102360009943EB6941EAC3010160106840F0100035
:1023700010606EB11068012E0ED040F40010106095
:10238000206840F080602060FEF7FEFC05460EE00D
:10239000106840F40020F2E740F48010EFE700BF3F
:1023A000FEF7F2FC401B022801D9032094E72068C5
:1023B0000001F5D548468FE7284402582DE9F0473B
:1023C000DFF8088105460E46D8F800004FF00009F6
:1023D000C043800709D03D4C283C206820F0805045
:1023E0002060FEF7D1FC074607E00120BDE8F0873A
:1023F000FEF7CAFCC01B022861D820688000F7D411
:10240000D8F800102A8821F07C7141EA0251C8F8FE
:102410000010287AA9884002A0F50070491E80B2F9
:10242000C1F308010843A9894FF4FE02491E02EADC
:1024300001410843297C1202491E02EA0161084356
:10244000224918310860214A121D1068696920F478
:102450004060084310601068A96920F400700843C8
:102460001060106820F48070106018481C300168FB
:102470004FF6F8739943EB6941EAC30101601068B4
:1024800040F4807010606EB11068012E0ED040F0E4
:1024900080701060206840F080502060FEF774FC6F
:1024A00005460EE0106840F48000F2E740F40000BA
:1024B000EFE700BFFEF768FC401B022801D90320AC
:1024C00094E720688000F5D548468FE728440258F5
:1024D0007047FEF767BC00000548016841F47001D1
:1024E000016003487838016841F0100101607047CD
:1024F00088ED00E0FEE70907090E002804DB00F183
:10250000E02080F80014704700F00F0000F1E02098
:1025100080F8141D70470000174C08B5206840F083
:1025200000702060206800F0007000900120FEF72D
:1025300031FCFEF7E5FC012202210020FEF7E8FC59
:102540000E480068C0F30310072811D00C4801683A
:1025500041F001010160FEF72DFC206840F0010010
:102560002060206800F001000090FFF751FEFEE7B8
:1025700003481038EBE70000E044025800ED00E0AB
:10258000146502584FF04070E1EE100A70470000E9
:102590000000010203040102030406070809000009
:1025A000C02510080000001014000000D40210081C
:1025B000D425100814000010C4060000F002100812
:1025C0000100000010000000000000000090D00397
:0425D0000090D003A4
:040000050810029944
:00000001FF
